:100000000C9446000C9465000C9465000C946500FB
:100010000C9465000C9465000C9465000C946500CC
:100020000C9465000C9465000C9465000C946500BC
:100030000C9465000C9400040C9465000C9465000D
:100040000C9465000C9465000C9465000C9465009C
:100050000C9465000C9465000C9465000C9465008C
:100060000C9465000C9465000C9465000C9465007C
:100070000C9465000C9465000C9465000C9465006C
:100080000C9465000C9465000C94650011241FBE4F
:10009000CFEFD0E4DEBFCDBF11E0A0E0B1E0E0ECF7
:1000A000F5E100E00BBF02C007900D92AC32B10742
:1000B000D9F711E0ACE2B1E001C01D92A136B10761
:1000C000E1F70E946C060C94DE0A0C940000DF93AA
:1000D000CF930F92CDB7DEB7898389818130E1F06C
:1000E00081EC90E021EC30E0F90120812861FC01F5
:1000F000208382EC90E022EC30E0F9012081266040
:10010000FC01208384EC90E023E3FC01208385EC58
:1001100090E0FC0110821BC089EC90E029EC30E0FB
:10012000F90120812861FC0120838AEC90E02AEC0F
:1001300030E0F90120812660FC0120838CEC90E006
:1001400023E3FC0120838DEC90E0FC0110820F90F2
:10015000CF91DF910895DF93CF930F92CDB7DEB7A4
:1001600089838981813031F080EC90E0FC018081CD
:10017000807205C088EC90E0FC01808180720F9055
:10018000CF91DF910895DF93CF930F92CDB7DEB774
:1001900089838981813031F080EC90E0FC0180819D
:1001A000807405C088EC90E0FC01808180740F9021
:1001B000CF91DF910895DF93CF930F92CDB7DEB744
:1001C00089838981813031F080EC90E0FC0180816D
:1001D000807805C088EC90E0FC01808180780F90E9
:1001E000CF91DF910895DF93CF930F92CDB7DEB714
:1001F000898389818130A9F006C086EC90E0FC01FA
:1002000080818093600180EC90E0FC0180818823F4
:10021000A4F30EC08EEC90E0FC018081809360011D
:1002200001C0000088EC90E0FC018081882394F3F9
:100230000F90CF91DF910895DF93CF9300D0CDB78A
:10024000DEB789836A838A81813089F0000080EC7F
:1002500090E0FC018081882F90E080729070009780
:10026000B1F386EC90E02981FC01208310C00000EE
:1002700088EC90E0FC018081882F90E08072907083
:100280000097B1F38EEC90E02981FC0120830F9060
:100290000F90CF91DF910895DF93CF930F92CDB759
:1002A000DEB789838981813061F0000080EC90E0C5
:1002B000FC0180818823D4F786EC90E0FC018081EA
:1002C0000BC0000088EC90E0FC0180818823D4F70B
:1002D0008EEC90E0FC0180810F90CF91DF9108952A
:1002E000DF93CF9300D00F92CDB7DEB789836A83B7
:1002F0004B838B81882379F08A81282F30E081E03D
:1003000090E0022E02C0880F991F0A94E2F7982FFE
:100310008981892B0FC08A81282F30E081E090E00D
:10032000022E02C0880F991F0A94E2F7982F909529
:10033000898189230F900F900F90CF91DF910895BD
:10034000DF93CF9300D0CDB7DEB789836A838981ED
:10035000882F90E02A81222F30E0022E02C095954E
:1003600087950A94E2F781700F900F90CF91DF91FB
:100370000895DF93CF93CDB7DEB788E290E02FEEFC
:10038000FC012083000086E290E0FC01808160E0B7
:100390000E94A001882311F481E3B8C086E290E0B6
:1003A000FC01808161E00E94A001882311F484E3B4
:1003B000ADC086E290E0FC01808162E00E94A00175
:1003C000882311F487E3A2C086E290E0FC018081DB
:1003D00063E00E94A001882311F48AE297C088E2BA
:1003E00090E02FEDFC012083000086E290E0FC010C
:1003F000808160E00E94A001882311F482E386C01E
:1004000086E290E0FC01808161E00E94A0018823E7
:1004100011F485E37BC086E290E0FC01808162E01C
:100420000E94A001882311F488E370C086E290E066
:10043000FC01808163E00E94A001882311F480E325
:1004400065C088E290E02FEBFC012083000086E28B
:1004500090E0FC01808160E00E94A001882311F4FB
:1004600083E354C086E290E0FC01808161E00E9459
:10047000A001882311F486E349C086E290E0FC01E4
:10048000808162E00E94A001882311F489E33EC0CC
:1004900086E290E0FC01808163E00E94A001882355
:1004A00011F483E233C088E290E02FE7FC0120835F
:1004B000000086E290E0FC01808160E00E94A001E3
:1004C000882311F481E422C086E290E0FC0180815F
:1004D00061E00E94A001882311F482E417C086E243
:1004E00090E0FC01808162E00E94A001882311F469
:1004F00083E40CC086E290E0FC01808163E00E940E
:10050000A001882311F484E401C080E0CF91DF9141
:100510000895DF93CF93CDB7DEB72C970FB6F8943D
:10052000DEBF0FBECDBF6D837E838F839887298703
:100530003A874B875C878D819E81AF81B8852985FD
:100540003A854B855C85BC01CD010E94BC0ADC016B
:10055000CB0189839A83AB83BC8389819A81AB81E8
:10056000BC810097A105B10579F489859A85AB8591
:10057000BC85BC01CD012C960FB6F894DEBF0FBE32
:10058000CDBFCF91DF91089589859A85AB85BC85D4
:100590008D839E83AF83B88789819A81AB81BC812B
:1005A00089879A87AB87BC87C6CFDF93CF93CDB7B8
:1005B000DEB78AE790E02AE730E0F9012081206E7B
:1005C000FC012083CF91DF9108950F931F93DF9358
:1005D000CF9300D000D0CDB7DEB769837A838B8309
:1005E0009C8320915C0130915D0140915E015091AE
:1005F0005F0169817A818B819C810E9443098823F4
:1006000009F485C011E069817A818B819C8120E0A9
:1006100030E0A9010E944309882309F410E081E039
:100620008127882351F081E990E021E930E0F90148
:1006300020812870FC01208309C081E990E021E934
:1006400030E0F90120812360FC01208311E0698101
:100650007A818B819C8128E539E344E75FE30E943E
:10066000430988230CF010E0112341F088E990E061
:100670002FEF3FEFFC013183208338C011E0698107
:100680007A818B819C8120E034E244EF56E40E9421
:10069000550A18160CF010E0112331F088E990E0AB
:1006A000FC011182108222C008E910E069817A8180
:1006B0008B819C8120E030E040E053E40E94590AA5
:1006C000DC01CB019C01AD0160E074E284EF9AE4AF
:1006D0000E944709DC01CB01BC01CD010E94AF099A
:1006E000DC01CB010197F8019183808384E990E0DC
:1006F000FC011182108289819A81AB81BC81809337
:100700005C0190935D01A0935E01B0935F010F9037
:100710000F900F900F90CF91DF911F910F9108953F
:10072000DF93CF93CDB7DEB780E990E020E4FC0102
:10073000208381E990E02BE0FC01208360E070E001
:10074000CB010E94E502CF91DF910895DF93CF9313
:10075000CDB7DEB780E990E0FC01108281E990E03E
:10076000FC011082CF91DF910895DF93CF93CDB735
:10077000DEB781E890E02BE0FC01208388E890E080
:100780002DE730E0FC01318320838FE690E022E00A
:10079000FC01208384E890E0FC01118210828091AA
:1007A000000190910101A0910201B0910301809399
:1007B0002D0190932E01A0932F01B09330018FE56E
:1007C00090E02FE530E0F90120812068FC012083D2
:1007D000CF91DF910895DF93CF93CDB7DEB781E856
:1007E00090E0FC011082CF91DF910895DF93CF93C9
:1007F000CDB7DEB781E080932C01CF91DF910895D2
:100800001F920F920FB60F9200905B000F9211246F
:100810002F933F934F935F936F937F938F939F9308
:10082000AF93BF93EF93FF93DF93CF93CDB7DEB733
:1008300080912D0190912E01A0912F01B091300156
:100840000197A109B10980932D0190932E01A093E6
:100850002F01B093300180912D0190912E01A09134
:100860002F01B09130010097A105B10591F40E94CC
:10087000F6038091000190910101A0910201B091D5
:10088000030180932D0190932E01A0932F01B0932B
:100890003001CF91DF91FF91EF91BF91AF919F9187
:1008A0008F917F916F915F914F913F912F910F9019
:1008B00000925B000F900FBE0F901F901895DF9372
:1008C000CF9300D000D0CDB7DEB769837A838B8316
:1008D0009C8389819A81AB81BC8180930001909334
:1008E0000101A0930201B093030180910001909156
:1008F0000101A0910201B091030180932D01909319
:100900002E01A0932F01B09330010F900F900F9004
:100910000F90CF91DF910895DF93CF9300D0CDB7A3
:10092000DEB789836A8380E00E94AB00882331F0C0
:1009300099818A81892B60E00E941C010F900F90A1
:10094000CF91DF910895DF93CF9300D000D00F9225
:10095000CDB7DEB79D838C8319821A821B828C816E
:100960009D81009719F41D821C8203C01D821C8288
:1009700000008C819D81009709F083C080E290E0A7
:10098000FC018081898383E290E0FC018081809575
:100990008A83898161E00E94A001809336018A8167
:1009A00060E00E94A001809331018A8161E00E9491
:1009B000A001809332018A8162E00E94A0018093AD
:1009C00033018A8163E00E94A001809334018A810F
:1009D00064E00E94A001809335010E94B9018B83DD
:1009E0008B81882309F449C08B81873319F41092D5
:1009F0003A0148C08B81843421F481E080933A012C
:100A000041C08B81833421F482E080933A013AC063
:100A10008B81823421F483E080933A0133C08B814F
:100A2000833221F484E080933A012CC08B81893396
:100A300021F485E080933A0125C08B81863321F42F
:100A400086E080933A011EC08B81803321F487E0D9
:100A500080933A0117C08B81883321F488E080931A
:100A60003A0110C08B81853321F489E080933A01EB
:100A700009C08AE080933A0105C08BE080933A0177
:100A800001C000008C819D810F900F900F900F90FE
:100A90000F90CF91DF910895DF93CF9300D0CDB722
:100AA000DEB79A83898389819A81009719F41A8223
:100AB000198203C01A8219820000000089819A817C
:100AC0000F900F90CF91DF910895DF93CF9300D0D7
:100AD000CDB7DEB79A83898389819A81009719F40B
:100AE0001A82198203C01A821982000089819A81B0
:100AF000009709F0E9C010923701109238018091F7
:100B00003101882349F088E08093380180912501E4
:100B100061E00E948C04BDC080913201882349F0BD
:100B200082E0809338018091250162E00E948C046C
:100B3000B0C080913301882349F089E08093380167
:100B40008091250163E00E948C04A3C08091340150
:100B5000882349F08BE0809338018091250164E07F
:100B60000E948C0496C080913501882349F081E071
:100B7000809338018091250165E00E948C0489C032
:100B800080913601882349F081E08093370180917C
:100B9000250166E00E948C047CC080913901882385
:100BA00031F08091250167E00E948C0472C0809131
:100BB0003A018B3009F46DC080913A018A3031F4EA
:100BC000809125016AE00E948C0463C080913A0103
:100BD000882331F48091250160E00E948C0459C083
:100BE00080913A01813031F48091250161E00E94C9
:100BF0008C044FC080913A01823031F480912501FC
:100C000062E00E948C0445C080913A01833031F447
:100C10008091250163E00E948C043BC080913A01E1
:100C2000843031F48091250164E00E948C0431C04D
:100C300080913A01853031F48091250165E00E9470
:100C40008C0427C080913A01863031F480912501CF
:100C500066E00E948C041DC080913A01873031F417
:100C60008091250167E00E948C0413C080913A01B5
:100C7000883031F48091250168E00E948C0409C01D
:100C800080913A01893029F48091250169E00E9420
:100C90008C048BE290E020913701222F30E0220F6C
:100CA000331F220F331F220F331F422F2091380191
:100CB000222F30E022953295307F3227207F322755
:100CC000242BFC01208301C0000089819A810F90B0
:100CD0000F90CF91DF9108950F931F93DF93CF93E0
:100CE000CDB7DEB7AA970FB6F894DEBF0FBECDBF63
:100CF00081E290E02FEFFC01208382E290E0FC0192
:100D0000108284E290E0FC01108285E290E02FEFF7
:100D1000FC01208387E290E020EFFC01208388E241
:100D200090E02FE0FC0120838AE290E02FEFFC01AD
:100D300020838BE290E0FC01108281E090E0A0E053
:100D4000B0E08B839C83AD83BE8385E090E0A0E020
:100D5000B0E08F839887A987BA878AE090E0A0E007
:100D6000B0E08B879C87AD87BE8781E090E0A0E0F4
:100D7000B0E08F87988BA98BBA8B8B819C81AD81DA
:100D8000BE812F81388549855A85BC01CD010E94DD
:100D90008902DC01CB018F87988BA98BBA8B8F8559
:100DA0009889A989BA892B853C854D855E85BC01CA
:100DB000CD010E948902DC01CB018F87988BA98B22
:100DC000BA8B8F859889A989BA898B8B9C8BAD8BBF
:100DD000BE8B8B819C81AD81BE812B893C894D89E5
:100DE0005E89BC01CD010E94BC0A2F8B388F498FD0
:100DF0005A8F8F819885A985BA852B893C894D8921
:100E00005E89BC01CD010E94BC0A2B8F3C8F4D8FA7
:100E10005E8F8B859C85AD85BE852B893C894D89F0
:100E20005E89BC01CD010E94BC0A2F8F38A349A363
:100E30005AA3CE01859626E231E046E0F901008012
:100E40002F5F3F4FFC010082019641504423B1F7D0
:100E500083E090E09CA38BA38FEF80933B018F896D
:100E6000988DA98DBA8D80933C0190933D01A093FC
:100E70003E01B0933F018F89988DA98DBA8D8093E3
:100E8000400190934101A0934201B093430183EA52
:100E900094E090934501809344018FEF8093460145
:100EA0008B8D9C8DAD8DBE8D8093470190934801B5
:100EB000A0934901B0934A018B8D9C8DAD8DBE8D61
:100EC00080934B0190934C01A0934D01B0934E0140
:100ED0008CE495E09093500180934F018FEF8093C5
:100EE00051018F8D98A1A9A1BAA18093520190932D
:100EF0005301A0935401B09355018F8D98A1A9A1DE
:100F0000BAA18093560190935701A0935801B093D2
:100F1000590185E695E090935B0180935A018B8996
:100F20009C89AD89BE89BC01CD010E945F040E94ED
:100F3000B50380E00E94670080E00E94F3001A82FF
:100F400019829BC089819A81880F991F9E012F5F0A
:100F50003F4F820F931F8496FC0180819181FC0199
:100F6000258136814781508589819A81880F991F13
:100F7000BE016F5F7F4F860F971F8496FC018081B3
:100F80009181FC0181819281A381B4812817390765
:100F90004A075B0709F045C089819A81880F991F2C
:100FA0009E012F5F3F4F820F931F8496FC010081AB
:100FB000118189819A81880F991F9E012F5F3F4F70
:100FC000820F931F8496FC0180819181FC01218511
:100FD000328589819A81880F991FAE014F5F5F4FDB
:100FE000840F951F8496FC0180819181FC01808192
:100FF000992787FD9095F9010995F80180838981EA
:101000009A81880F991F9E012F5F3F4F820F931F78
:101010008496FC0180819181FC01158216821782E1
:10102000108689819A81880F991F9E012F5F3F4FFB
:10103000820F931F8496FC012081318189819A81DE
:10104000880F991FAE014F5F5F4F840F951F8496E5
:10105000FC0180819181FC0185819681A781B08509
:101060000196A11DB11DF90185839683A783B087E1
:1010700089819A8101969A83898329813A818BA1FA
:101080009CA12817390708F45DCF000080912C013E
:101090008823E1F310922C0152CFDF93CF93CDB789
:1010A000DEB781E00E947208CF91DF910895DF934F
:1010B000CF93CDB7DEB784E690E00E94130988E3B2
:1010C0000E94720886E00E9472088FE00E947208F7
:1010D00081E00E9472088AE090E00E941309CF919B
:1010E000DF910895DF93CF930F92CDB7DEB7898359
:1010F0008BE290E02BE230E0F90120812F7BFC01B4
:10110000208388E290E02981FC0120838BE290E03B
:101110002BE230E0F90120812068FC0120830000EF
:101120008BE290E02BE230E0F90120812F77FC0187
:10113000208382E090E00E9413090F90CF91DF910D
:101140000895DF93CF930F92CDB7DEB789838BE2FB
:1011500090E02BE230E0F90120812064FC01208343
:1011600088E290E02981FC0120838BE290E02BE271
:1011700030E0F90120812068FC01208300008BE22F
:1011800090E02BE230E0F90120812F77FC012083F1
:1011900081E090E00E9413090F90CF91DF910895B4
:1011A000DF93CF9300D000D0CDB7DEB78A837C83A6
:1011B0006B830E944D088A81898312C0898199813D
:1011C0009F5F99830E94FD088B819C81FC01208197
:1011D0008B819C8101969C838B83822F0E94A10826
:1011E0008B819C81FC018081882341F70F900F90B7
:1011F0000F900F90CF91DF910895DF93CF930F92CF
:10120000CDB7DEB789838981813128F489818158FE
:101210000E94720804C0898181550E9472080F9053
:10122000CF91DF910895DF93CF9300D000D000D00D
:10123000CDB7DEB79E838D831A82198214C01C82BB
:101240001B8206C000008B819C8101969C838B834E
:101250008B819C8123E087309207A4F389819A8156
:1012600001969A83898329813A818D819E812817ED
:1012700039072CF326960FB6F894DEBF0FBECDBF0C
:10128000CF91DF9108959CD008F481E008950CD0AF
:10129000D2C0CAD040F0C1D030F021F45F3F19F085
:1012A000B3C05111FCC0B6C0D7D098F39923C9F38D
:1012B0005523B1F3951B550BBB27AA27621773075C
:1012C000840738F09F5F5F4F220F331F441FAA1F10
:1012D000A9F333D00E2E3AF0E0E830D091505040D0
:1012E000E695001CCAF729D0FE2F27D0660F771F7E
:1012F000881FBB1F261737074807AB07B0E809F060
:10130000BB0B802DBF01FF2793585F4F2AF09E3FF4
:10131000510568F079C0C3C05F3FECF3983EDCF341
:10132000869577956795B795F7959F5FC9F7880F6D
:10133000911D9695879597F90895E1E0660F771FBF
:10134000881FBB1F621773078407BA0720F0621B50
:10135000730B840BBA0BEE1F88F7E095089504D049
:101360006894B1119CC008957FD088F09F5790F089
:10137000B92F9927B751A0F0D1F0660F771F881FBA
:10138000991F1AF0BA95C9F712C0B13081F086D012
:10139000B1E0089583C0672F782F8827B85F39F0B0
:1013A000B93FCCF3869577956795B395D9F73EF419
:1013B00090958095709561957F4F8F4F9F4F0895C1
:1013C000990F0008550FAA0BE0E8FEEF1616170656
:1013D000E807F907C0F012161306E407F50798F0BE
:1013E000621B730B840B950B39F40A2661F0232BD7
:1013F000242B252B21F408950A2609F4A140A69553
:101400008FEF811D811D089597F99F6780E870E037
:1014100060E008959FEF80EC089500240A9416166A
:10142000170618060906089500240A9412161306D2
:10143000140605060895092E0394000C11F4882360
:1014400052F0BB0F40F4BF2B11F460FF04C06F5F7C
:101450007F4F8F4F9F4F089557FD9058440F551F52
:1014600059F05F3F71F04795880F97FB991F61F026
:101470009F3F79F087950895121613061406551F9D
:10148000F2CF4695F1DF08C0161617061806991F09
:10149000F1CF86957105610508940895E894BB27FE
:1014A00066277727CB0197F908958ADF08F48FEF35
:1014B00008950BD0C0CFB1DF28F0B6DF18F0952328
:1014C00009F0A2CFA7CF1124EACFC6DFA0F3959FE2
:1014D000D1F3950F50E0551F629FF001729FBB271B
:1014E000F00DB11D639FAA27F00DB11DAA1F649FC7
:1014F0006627B00DA11D661F829F2227B00DA11D7A
:10150000621F739FB00DA11D621F839FA00D611DFF
:10151000221F749F3327A00D611D231F849F600D20
:10152000211D822F762F6A2F11249F5750408AF059
:10153000E1F088234AF0EE0FFF1FBB1F661F771FE5
:10154000881F91505040A9F79E3F510570F05CCF25
:10155000A6CF5F3FECF3983EDCF3869577956795D1
:10156000B795F795E7959F5FC1F7FE2B880F911D03
:101570009695879597F90895A1E21A2EAA1BBB1B91
:10158000FD010DC0AA1FBB1FEE1FFF1FA217B3074F
:10159000E407F50720F0A21BB30BE40BF50B661F65
:1015A000771F881F991F1A9469F760957095809529
:1015B00090959B01AC01BD01CF010895F894FFCF38
:1015C00001000000000102030405060708090A0BD8
:1015D0000C0D0E0F101112131415161718191A1BD3
:0C15E0001C1D1E1F00803B014601510134
:00000001FF
