:100000000C9446000C9465000C9465000C946500FB
:100010000C9465000C9465000C9465000C946500CC
:100020000C9465000C9465000C9465000C946500BC
:100030000C9465000C9400040C9465000C9465000D
:100040000C9465000C9465000C9465000C9465009C
:100050000C9465000C9465000C9465000C9465008C
:100060000C9465000C9465000C9465000C9465007C
:100070000C9465000C9465000C9465000C9465006C
:100080000C9465000C9465000C94650011241FBE4F
:10009000CFEFD0E4DEBFCDBF11E0A0E0B1E0EEEDE8
:1000A000FDE100E00BBF02C007900D92AA33B1073B
:1000B000D9F711E0AAE3B1E001C01D92A539B1075B
:1000C000E1F70E94C7080C94ED0E0C940000DF933A
:1000D000CF930F92CDB7DEB7898389818130E1F06C
:1000E00081EC90E021EC30E0F90120812861FC01F5
:1000F000208382EC90E022EC30E0F9012081266040
:10010000FC01208384EC90E023E3FC01208385EC58
:1001100090E0FC0110821BC089EC90E029EC30E0FB
:10012000F90120812861FC0120838AEC90E02AEC0F
:1001300030E0F90120812660FC0120838CEC90E006
:1001400023E3FC0120838DEC90E0FC0110820F90F2
:10015000CF91DF910895DF93CF930F92CDB7DEB7A4
:1001600089838981813031F080EC90E0FC018081CD
:10017000807205C088EC90E0FC01808180720F9055
:10018000CF91DF910895DF93CF930F92CDB7DEB774
:1001900089838981813031F080EC90E0FC0180819D
:1001A000807405C088EC90E0FC01808180740F9021
:1001B000CF91DF910895DF93CF930F92CDB7DEB744
:1001C00089838981813031F080EC90E0FC0180816D
:1001D000807805C088EC90E0FC01808180780F90E9
:1001E000CF91DF910895DF93CF930F92CDB7DEB714
:1001F000898389818130A9F006C086EC90E0FC01FA
:1002000080818093940180EC90E0FC0180818823C0
:10021000A4F30EC08EEC90E0FC01808180939401E9
:1002200001C0000088EC90E0FC018081882394F3F9
:100230000F90CF91DF910895DF93CF9300D0CDB78A
:10024000DEB789836A838A81813089F0000080EC7F
:1002500090E0FC018081882F90E080729070009780
:10026000B1F386EC90E02981FC01208310C00000EE
:1002700088EC90E0FC018081882F90E08072907083
:100280000097B1F38EEC90E02981FC0120830F9060
:100290000F90CF91DF910895DF93CF930F92CDB759
:1002A000DEB789838981813061F0000080EC90E0C5
:1002B000FC0180818823D4F786EC90E0FC018081EA
:1002C0000BC0000088EC90E0FC0180818823D4F70B
:1002D0008EEC90E0FC0180810F90CF91DF9108952A
:1002E000DF93CF9300D00F92CDB7DEB789836A83B7
:1002F0004B838B81882379F08A81282F30E081E03D
:1003000090E0022E02C0880F991F0A94E2F7982FFE
:100310008981892B0FC08A81282F30E081E090E00D
:10032000022E02C0880F991F0A94E2F7982F909529
:10033000898189230F900F900F90CF91DF910895BD
:10034000DF93CF9300D0CDB7DEB789836A838981ED
:10035000882F90E02A81222F30E0022E02C095954E
:1003600087950A94E2F781700F900F90CF91DF91FB
:100370000895DF93CF93CDB7DEB788E290E02FEEFC
:10038000FC012083000086E290E0FC01808160E0B7
:100390000E94A001882311F481E3B8C086E290E0B6
:1003A000FC01808161E00E94A001882311F484E3B4
:1003B000ADC086E290E0FC01808162E00E94A00175
:1003C000882311F487E3A2C086E290E0FC018081DB
:1003D00063E00E94A001882311F48AE297C088E2BA
:1003E00090E02FEDFC012083000086E290E0FC010C
:1003F000808160E00E94A001882311F482E386C01E
:1004000086E290E0FC01808161E00E94A0018823E7
:1004100011F485E37BC086E290E0FC01808162E01C
:100420000E94A001882311F488E370C086E290E066
:10043000FC01808163E00E94A001882311F480E325
:1004400065C088E290E02FEBFC012083000086E28B
:1004500090E0FC01808160E00E94A001882311F4FB
:1004600083E354C086E290E0FC01808161E00E9459
:10047000A001882311F486E349C086E290E0FC01E4
:10048000808162E00E94A001882311F489E33EC0CC
:1004900086E290E0FC01808163E00E94A001882355
:1004A00011F483E233C088E290E02FE7FC0120835F
:1004B000000086E290E0FC01808160E00E94A001E3
:1004C000882311F481E422C086E290E0FC0180815F
:1004D00061E00E94A001882311F482E417C086E243
:1004E00090E0FC01808162E00E94A001882311F469
:1004F00083E40CC086E290E0FC01808163E00E940E
:10050000A001882311F484E401C080E0CF91DF9141
:100510000895DF93CF93CDB7DEB72C970FB6F8943D
:10052000DEBF0FBECDBF6D837E838F839887298703
:100530003A874B875C878D819E81AF81B8852985FD
:100540003A854B855C85BC01CD010E941F0EDC0104
:10055000CB0189839A83AB83BC8389819A81AB81E8
:10056000BC810097A105B10579F489859A85AB8591
:10057000BC85BC01CD012C960FB6F894DEBF0FBE32
:10058000CDBFCF91DF91089589859A85AB85BC85D4
:100590008D839E83AF83B88789819A81AB81BC812B
:1005A00089879A87AB87BC87C6CFDF93CF93CDB7B8
:1005B000DEB78AE790E02AE730E0F9012081206E7B
:1005C000FC012083CF91DF9108950F931F93DF9358
:1005D000CF9300D000D0CDB7DEB769837A838B8309
:1005E0009C83209190013091910140919201509112
:1005F000930169817A818B819C810E94870C882379
:1006000009F485C011E069817A818B819C8120E0A9
:1006100030E0A9010E94870C882309F410E081E0F2
:100620008127882351F081E990E021E930E0F90148
:1006300020812870FC01208309C081E990E021E934
:1006400030E0F90120812360FC01208311E0698101
:100650007A818B819C8128E539E344E75FE30E943E
:10066000870C88230CF010E0112341F088E990E01A
:100670002FEF3FEFFC013183208338C011E0698107
:100680007A818B819C8120E034E244EF56E40E9421
:10069000990D18160CF010E0112331F088E990E064
:1006A000FC011182108222C008E910E069817A8180
:1006B0008B819C8120E030E040E053E40E949D0D5E
:1006C000DC01CB019C01AD0160E074E284EF9AE4AF
:1006D0000E948B0CDC01CB01BC01CD010E94F30C0C
:1006E000DC01CB010197F8019183808384E990E0DC
:1006F000FC011182108289819A81AB81BC81809337
:10070000900190939101A0939201B09393010F9067
:100710000F900F900F90CF91DF911F910F9108953F
:10072000DF93CF93CDB7DEB780E990E020E4FC0102
:10073000208381E990E02BE0FC01208360E070E001
:10074000CB010E94E502CF91DF910895DF93CF9313
:10075000CDB7DEB780E990E0FC01108281E990E03E
:10076000FC011082CF91DF910895DF93CF93CDB735
:10077000DEB781E890E02BE0FC01208388E890E080
:100780002DE730E0FC01318320838FE690E022E00A
:10079000FC01208384E890E0FC01118210828091AA
:1007A000000190910101A0910201B0910301809399
:1007B0003B0190933C01A0933D01B0933E018FE536
:1007C00090E02FE530E0F90120812068FC012083D2
:1007D000CF91DF910895DF93CF93CDB7DEB781E856
:1007E00090E0FC011082CF91DF910895DF93CF93C9
:1007F000CDB7DEB781E080933A01CF91DF910895C4
:100800001F920F920FB60F9200905B000F9211246F
:100810002F933F934F935F936F937F938F939F9308
:10082000AF93BF93EF93FF93DF93CF93CDB7DEB733
:1008300080913B0190913C01A0913D01B0913E011E
:100840000197A109B10980933B0190933C01A093CA
:100850003D01B0933E0180913B0190913C01A091FC
:100860003D01B0913E010097A105B10591F40E94B0
:10087000F6038091000190910101A0910201B091D5
:10088000030180933B0190933C01A0933D01B09301
:100890003E01CF91DF91FF91EF91BF91AF919F9179
:1008A0008F917F916F915F914F913F912F910F9019
:1008B00000925B000F900FBE0F901F901895DF9372
:1008C000CF9300D000D0CDB7DEB769837A838B8316
:1008D0009C8389819A81AB81BC8180930001909334
:1008E0000101A0930201B093030180910001909156
:1008F0000101A0910201B091030180933B0190930B
:100900003C01A0933D01B0933E010F900F900F90DA
:100910000F90CF91DF910895DF93CF9300D0CDB7A3
:10092000DEB789836A8380E00E94AB00882331F0C0
:1009300099818A81892B60E00E941C010F900F90A1
:10094000CF91DF910895DF93CF9300D000D00F9225
:10095000CDB7DEB79D838C8319821A821B828C816E
:100960009D81009719F41D821C8203C01D821C8288
:1009700000008C819D81009709F083C080E290E0A7
:10098000FC018081898383E290E0FC018081809575
:100990008A83898161E00E94A001809344018A8159
:1009A00060E00E94A00180933F018A8161E00E9483
:1009B000A001809340018A8162E00E94A00180939F
:1009C00041018A8163E00E94A001809342018A81F3
:1009D00064E00E94A001809343010E94B9018B83CF
:1009E0008B81882309F449C08B81873319F41092D5
:1009F000480148C08B81843421F481E08093480110
:100A000041C08B81833421F482E0809348013AC055
:100A10008B81823421F483E08093480133C08B8141
:100A2000833221F484E0809348012CC08B81893388
:100A300021F485E08093480125C08B81863321F421
:100A400086E0809348011EC08B81803321F487E0CB
:100A50008093480117C08B81883321F488E080930C
:100A6000480110C08B81853321F489E080934801CF
:100A700009C08FE08093480105C08BE08093480156
:100A800001C000008C819D810F900F900F900F90FE
:100A90000F90CF91DF910895DF93CF9300D0CDB722
:100AA000DEB79A83898389819A81009719F41A8223
:100AB000198203C01A8219820000000089819A817C
:100AC0000F900F90CF91DF910895DF93CF9300D0D7
:100AD000CDB7DEB79A83898389819A81009719F40B
:100AE0001A82198203C01A821982000089819A81B0
:100AF000009709F0C7C010924501109246018091FD
:100B00003F01882321F088E080934601A0C08091B6
:100B10004001882321F082E08093460198C08091B3
:100B20004101882321F089E08093460190C08091A3
:100B30004201882321F08BE08093460188C0809198
:100B40004301882321F081E08093460180C0809199
:100B50004401882321F081E08093450178C0809191
:100B600048018B3009F46EC0809148018F3031F418
:100B7000809127016FE00E948C0469C08091480138
:100B8000882331F48091270160E00E948C045FC0CB
:100B900080914801813031F48091270161E00E9409
:100BA0008C0455C080914801823031F48091270136
:100BB00062E00E948C044BC080914801833031F484
:100BC0008091270163E00E948C0441C0809148011C
:100BD000843031F48091270164E00E948C0437C096
:100BE00080914801853031F48091270165E00E94B1
:100BF0008C042DC080914801863031F4809127010A
:100C000066E00E948C0423C080914801873031F453
:100C10008091270167E00E948C0419C080914801EF
:100C2000883031F48091270168E00E948C040FC065
:100C300080914801893059F48091270169E00E9430
:100C40008C0405C0809127016BE00E948C048BE22C
:100C500090E020914501222F30E0220F331F220F18
:100C6000331F220F331F422F20914601222F30E0E5
:100C700022953295307F3227207F3227242BFC01AA
:100C8000208301C0000089819A810F900F90CF913D
:100C9000DF910895DF93CF9300D0CDB7DEB79A836D
:100CA000898389819A81009719F41A82198203C075
:100CB0001A821982000089819A81009751F48091EB
:100CC0004B01882341F080914B01815080934B016F
:100CD00003C0000001C0000089819A810F900F902D
:100CE000CF91DF910895DF93CF9300D0CDB7DEB7DA
:100CF0009A83898389819A81009719F41A821982CB
:100D000003C01A821982000089819A81009709F034
:100D1000E2C19091490180911F01981709F079C1B2
:100D200090914A0180910401981761F50E94A30EE9
:100D300020E130E0B9010E940C0E8F5F80934A01E0
:100D400080914C0193E0692F0E94000E882F90E063
:100D500029E030E0A901481B590BCA0182309105F6
:100D60006CF080914C0193E0692F0E94000E99E095
:100D7000592F581B852F80934B013EC181E08093F2
:100D80004B013AC180914B01882309F42DC1809118
:100D90003F01882371F090914A01809105019817D5
:100DA00019F48091230102C08091240180934901AC
:100DB0000DC180914001882371F090914A0180918A
:100DC0000601981719F48091230102C08091240133
:100DD00080934901FBC080914101882371F090917B
:100DE0004A0180910701981719F48091230102C0EC
:100DF0008091240180934901E9C0809142018823B8
:100E000071F090914A0180910801981719F480912E
:100E1000230102C08091240180934901D7C08091B1
:100E20004301882371F090914A018091090198173C
:100E300019F48091230102C080912401809349011B
:100E4000C5C080914401882371F090914A0180913E
:100E50000A01981719F48091230102C0809124019E
:100E600080934901B3C080914801882371F4909127
:100E70004A0180910B01981719F48091230102C057
:100E80008091240180934901A1C080914801813063
:100E900071F490914A0180910C01981719F4809196
:100EA000230102C080912401809349018FC0809169
:100EB0004801823071F490914A0180910D01981798
:100EC00019F48091230102C080912401809349018B
:100ED0007DC080914801833071F490914A018091E6
:100EE0000E01981719F48091230102C0809124010A
:100EF000809349016BC080914801843071F49091D6
:100F00004A0180910F01981719F48091230102C0C2
:100F1000809124018093490159C080914801853016
:100F200071F490914A0180911001981719F4809101
:100F3000230102C0809124018093490147C0809120
:100F40004801863071F490914A01809111019817FF
:100F500019F48091230102C08091240180934901FA
:100F600035C080914801873071F490914A01809199
:100F70001201981719F48091230102C08091240175
:100F80008093490123C080914801883071F4909189
:100F90004A0180911301981719F48091230102C02E
:100FA000809124018093490111C0809148018930CA
:100FB00069F490914A0180911401981719F4809175
:100FC000230102C08091240180934901909149013D
:100FD00080911F01981781F082E080934B018091EE
:100FE000040180934A0108C0809124018093490143
:100FF0008091040180934A019091490180912301DD
:10100000981709F04BC080914C018F5F80934C0181
:1010100045C09091490180911D01981731F0909140
:101020004901809124019817C9F4809104018093AB
:101030004A0110924C0180914001882379F18091FE
:101040001E018093490185E080934B018091280126
:1010500090914B01692F0E948C0420C0909149010E
:1010600080911E01981731F09091490180912301E0
:101070009817A1F48091040180934A0180914B015B
:10108000882329F480911F018093490107C0809132
:10109000280190914B01692F0E948C049091490185
:1010A00080911F01981779F48091280190914C014B
:1010B000692F0E948C048091250190914A01692F2B
:1010C0000E948C0409C08091260190914901692FEA
:1010D0000E948C0401C0000089819A810F900F90BA
:1010E000CF91DF910895DF93CF9300D0CDB7DEB7D6
:1010F0009A83898389819A81009719F41A821982C7
:1011000003C01A821982000089819A810097B9F57B
:1011100080914D01882361F09091490180911D01DA
:10112000981731F090914901809124019817D9F4D2
:1011300060E070E0CB010E94E50280914C0193E0F9
:10114000692F0E94000E882F90E029E030E0A9016D
:10115000481B590BCA011816190614F081E090E0DB
:1011600080934D010DC060E070E086E993E40E9439
:10117000E50280914D01815080934D0101C0000036
:1011800089819A810F900F90CF91DF9108950F93ED
:101190001F93DF93CF93CDB7DEB7C854D0400FB6BF
:1011A000F894DEBF0FBECDBF81E290E02FEFFC01CF
:1011B000208382E290E0FC01108284E290E020EE45
:1011C000FC01208385E290E02FE1FC01208387E28F
:1011D00090E020EFFC01208388E290E02FE0FC010A
:1011E00020838AE290E02FEFFC0120838BE290E0E5
:1011F000FC01108281E090E0A0E0B0E08B839C8352
:10120000AD83BE8385E090E0A0E0B0E08F83988757
:10121000A987BA8784E690E0A0E0B0E08B879C873E
:10122000AD87BE8788EE93E0A0E0B0E08F87988B13
:10123000A98BBA8B85E090E0A0E0B0E08B8B9C8B13
:10124000AD8BBE8B84E690E0A0E0B0E08F8B988FF2
:10125000A98FBA8F81E090E0A0E0B0E08B8F9C8FE7
:10126000AD8FBE8F8B819C81AD81BE812F813885F2
:1012700049855A85BC01CD010E948902DC01CB0160
:101280008B8F9C8FAD8FBE8F8B8D9C8DAD8DBE8DCA
:101290002B853C854D855E85BC01CD010E94890270
:1012A000DC01CB018B8F9C8FAD8FBE8F8B8D9C8D86
:1012B000AD8DBE8D2F85388949895A89BC01CD01F4
:1012C0000E948902DC01CB018B8F9C8FAD8FBE8F7A
:1012D0008B8D9C8DAD8DBE8D2B893C894D895E8912
:1012E000BC01CD010E948902DC01CB018B8F9C8F58
:1012F000AD8FBE8F8B8D9C8DAD8DBE8D2F89388D22
:10130000498D5A8DBC01CD010E948902DC01CB01BF
:101310008B8F9C8FAD8FBE8F8B8D9C8DAD8DBE8D39
:101320008F8F98A3A9A3BAA38B819C81AD81BE8125
:101330002F8D38A149A15AA1BC01CD010E941F0ED9
:101340002BA33CA34DA35EA38F819885A985BA8565
:101350002F8D38A149A15AA1BC01CD010E941F0EB9
:101360002FA338A749A75AA78B859C85AD85BE8535
:101370002F8D38A149A15AA1BC01CD010E941F0E99
:101380002BA73CA74DA75EA78F859889A989BA8905
:101390002F8D38A149A15AA1BC01CD010E941F0E79
:1013A0002FA738AB49AB5AAB8B899C89AD89BE89D5
:1013B0002F8D38A149A15AA1BC01CD010E941F0E59
:1013C0002BAB3CAB4DAB5EAB8F89988DA98DBA8DA5
:1013D0002F8D38A149A15AA1BC01CD010E941F0E39
:1013E0002FAB38AF49AF5AAFCE01CD9629E231E0ED
:1013F0004CE0F90100802F5F3F4FFC010082019615
:1014000041504423B1F786E090E09CAF8BAF8FEF63
:1014100080934E018BA19CA1ADA1BEA180934F01F1
:1014200090935001A0935101B09352018BA19CA1C4
:10143000ADA1BEA18093530190935401A093550197
:10144000B093560183EA94E090935801809357013A
:101450008FEF809359018FA198A5A9A5BAA5809374
:101460005A0190935B01A0935C01B0935D018FA141
:1014700098A5A9A5BAA580935E0190935F01A0935A
:101480006001B09361018CE495E0909363018093D7
:1014900062018FEF809364018BA59CA5ADA5BEA5CD
:1014A0008093650190936601A0936701B0936801F2
:1014B0008BA59CA5ADA5BEA58093690190936A01FB
:1014C000A0936B01B0936C0185E695E090936E015B
:1014D00080936D018FEF80936F018FA598A9A9A9C3
:1014E000BAA98093700190937101A0937201B09397
:1014F00073018FA598A9A9A9BAA9809374019093A3
:101500007501A0937601B09377018AE496E09093F9
:101510007901809378018FEF80937A018BA99CA940
:10152000ADA9BEA980937B0190937C01A0937D011E
:10153000B0937E018BA99CA9ADA9BEA980937F0120
:1015400090938001A0938101B093820183E796E09C
:1015500090938401809383018FEF809385018FA9FD
:1015600098ADA9ADBAAD8093860190938701A09301
:101570008801B09389018FA998ADA9ADBAAD8093C8
:101580008A0190938B01A0938C01B0938D0183E726
:1015900098E090938F0180938E018F8D98A1A9A1DF
:1015A000BAA1BC01CD010E945F040E94B50380E096
:1015B0000E94670080E00E94F3000E9490038091E7
:1015C0001D01809349011A8219829BC089819A81E9
:1015D000880F991F9E012F5F3F4F820F931FCC965C
:1015E000FC0180819181FC012581368147815085F4
:1015F00089819A81880F991FBE016F5F7F4F860F87
:10160000971FCC96FC0180819181FC0181819281A0
:10161000A381B481281739074A075B0709F045C041
:1016200089819A81880F991F9E012F5F3F4F820FFA
:10163000931FCC96FC010081118189819A81880FCA
:10164000991F9E012F5F3F4F820F931FCC96FC0185
:1016500080819181FC012185328589819A81880F61
:10166000991FAE014F5F5F4F840F951FCC96FC0111
:1016700080819181FC018081992787FD9095F901F6
:101680000995F801808389819A81880F991F9E01AD
:101690002F5F3F4F820F931FCC96FC018081918179
:1016A000FC01158216821782108689819A81880F23
:1016B000991F9E012F5F3F4F820F931FCC96FC0115
:1016C0002081318189819A81880F991FAE014F5FF6
:1016D0005F4F840F951FCC96FC0180819181FC01A6
:1016E00085819681A781B0850196A11DB11DF90163
:1016F00085839683A783B08789819A8101969A838F
:10170000898329813A818BAD9CAD2817390708F46C
:101710005DCF000080913A018823E1F310923A01F5
:1017200052CFDF93CF93CDB7DEB781E00E94B60BE7
:10173000CF91DF910895DF93CF93CDB7DEB784E6E5
:1017400090E00E94570C88E30E94B60B86E00E944E
:10175000B60B8FE00E94B60B81E00E94B60B8AE0C8
:1017600090E00E94570CCF91DF910895DF93CF93C3
:101770000F92CDB7DEB789838BE290E02BE230E0A9
:10178000F90120812F7BFC01208388E290E02981F0
:10179000FC0120838BE290E02BE230E0F901208114
:1017A0002068FC01208300008BE290E02BE230E017
:1017B000F90120812F77FC01208382E090E00E94D4
:1017C000570C0F90CF91DF910895DF93CF930F9235
:1017D000CDB7DEB789838BE290E02BE230E0F901F0
:1017E00020812064FC01208388E290E02981FC01B3
:1017F00020838BE290E02BE230E0F9012081206829
:10180000FC01208300008BE290E02BE230E0F90144
:1018100020812F77FC01208381E090E00E94570C0B
:101820000F90CF91DF910895DF93CF9300D000D038
:10183000CDB7DEB78A837C836B830E94910B8A814C
:10184000898312C0898199819F5F99830E94410C8D
:101850008B819C81FC0120818B819C8101969C83E2
:101860008B83822F0E94E50B8B819C81FC01808100
:10187000882341F70F900F900F900F90CF91DF9139
:101880000895DF93CF930F92CDB7DEB78983898117
:10189000813128F4898181580E94B60B04C0898166
:1018A00081550E94B60B0F90CF91DF910895DF9381
:1018B000CF9300D000D000D0CDB7DEB79E838D830C
:1018C0001A82198214C01C821B8206C000008B8100
:1018D0009C8101969C838B838B819C8123E0873044
:1018E0009207A4F389819A8101969A838983298139
:1018F0003A818D819E81281739072CF326960FB6E1
:10190000F894DEBF0FBECDBFCF91DF9108959CD07C
:1019100008F481E008950CD0D2C0CAD040F0C1D004
:1019200030F021F45F3F19F0B3C05111FCC0B6C0D4
:10193000D7D098F39923C9F35523B1F3951B550BD1
:10194000BB27AA2762177307840738F09F5F5F4F92
:10195000220F331F441FAA1FA9F333D00E2E3AF0D3
:10196000E0E830D091505040E695001CCAF729D0ED
:10197000FE2F27D0660F771F881FBB1F261737073C
:101980004807AB07B0E809F0BB0B802DBF01FF276C
:1019900093585F4F2AF09E3F510568F079C0C3C04D
:1019A0005F3FECF3983EDCF3869577956795B795A6
:1019B000F7959F5FC9F7880F911D9695879597F9C1
:1019C0000895E1E0660F771F881FBB1F621773073A
:1019D0008407BA0720F0621B730B840BBA0BEE1F4F
:1019E00088F7E095089504D06894B1119CC00895DB
:1019F0007FD088F09F5790F0B92F9927B751A0F06A
:101A0000D1F0660F771F881F991F1AF0BA95C9F792
:101A100012C0B13081F086D0B1E0089583C0672F45
:101A2000782F8827B85F39F0B93FCCF38695779542
:101A30006795B395D9F73EF490958095709561952B
:101A40007F4F8F4F9F4F0895990F0008550FAA0B96
:101A5000E0E8FEEF16161706E807F907C0F01216C1
:101A60001306E407F50798F0621B730B840B950BC4
:101A700039F40A2661F0232B242B252B21F4089519
:101A80000A2609F4A140A6958FEF811D811D0895B6
:101A900097F99F6780E870E060E008959FEF80EC21
:101AA000089500240A9416161706180609060895C4
:101AB00000240A9412161306140605060895092E2A
:101AC0000394000C11F4882352F0BB0F40F4BF2B99
:101AD00011F460FF04C06F5F7F4F8F4F9F4F0895D9
:101AE00057FD9058440F551F59F05F3F71F04795CF
:101AF000880F97FB991F61F09F3F79F087950895B4
:101B0000121613061406551FF2CF4695F1DF08C0D2
:101B1000161617061806991FF1CF869571056105EF
:101B200008940895E894BB2766277727CB0197F997
:101B300008958ADF08F48FEF08950BD0C0CFB1DF8E
:101B400028F0B6DF18F0952309F0A2CFA7CF112413
:101B5000EACFC6DFA0F3959FD1F3950F50E0551F54
:101B6000629FF001729FBB27F00DB11D639FAA27F2
:101B7000F00DB11DAA1F649F6627B00DA11D661F41
:101B8000829F2227B00DA11D621F739FB00DA11D62
:101B9000621F839FA00D611D221F749F3327A00D1C
:101BA000611D231F849F600D211D822F762F6A2FB8
:101BB00011249F5750408AF0E1F088234AF0EE0F3D
:101BC000FF1FBB1F661F771F881F91505040A9F74A
:101BD0009E3F510570F05CCFA6CF5F3FECF3983E7F
:101BE000DCF3869577956795B795F795E7959F5FB1
:101BF000C1F7FE2B880F911D9695879597F908954B
:101C0000991B79E004C0991F961708F0961B881F4E
:101C10007A95C9F78095089597FB092E07260AD073
:101C200077FD04D02ED006D000201AF4709561956F
:101C30007F4F0895F6F7909581959F4F0895A1E203
:101C40001A2EAA1BBB1BFD010DC0AA1FBB1FEE1F36
:101C5000FF1FA217B307E407F50720F0A21BB30B81
:101C6000E40BF50B661F771F881F991F1A9469F7FD
:101C700060957095809590959B01AC01BD01CF0159
:101C80000895AA1BBB1B51E107C0AA1FBB1FA617C3
:101C9000B70710F0A61BB70B881F991F5A95A9F715
:101CA00080959095BC01CD010895AF92BF92CF92DF
:101CB000DF92EF92FF920F931F93CF93DF93EC018C
:101CC000688179818A819B81611571058105910502
:101CD00021F464E279ED8BE597E02DE133EF41E00B
:101CE00050E00E94D20E79018A0127EA31E440E0F7
:101CF00050E00E94B30E5B016C01C801B7012CEEED
:101D000034EF4FEF5FEF0E94B30E6A0D7B1D8C1D09
:101D10009D1D97FF04C061507040804090486883CB
:101D200079838A839B837F77CB01DF91CF911F914A
:101D30000F91FF90EF90DF90CF90BF90AF900895FC
:101D40000E94550E089585E391E00E94550E089576
:101D5000A0E0B0E08093350190933601A093370165
:101D6000B09338010895629FD001739FF001829F64
:101D7000E00DF11D649FE00DF11D929FF00D839F1A
:101D8000F00D749FF00D659FF00D9927729FB00DB7
:101D9000E11DF91F639FB00DE11DF91FBD01CF01CA
:101DA0001124089597FB092E05260ED057FD04D067
:101DB00046DF0AD0001C38F45095409530952195A7
:101DC0003F4F4F4F5F4F0895F6F790958095709570
:0E1DD00061957F4F8F4F9F4F0895F894FFCF7E
:101DDE0001000000000102030405060708090A0BB2
:101DEE000C0D0E0F101112131415161718191A1BAD
:101DFE001B1C1D1E1F004080C04E01590164016F47
:0A1E0E00017A0185010100000000C7
:00000001FF
