:100000000C9446000C9465000C9465000C946500FB
:100010000C9465000C9465000C9465000C946500CC
:100020000C9465000C9465000C9465000C946500BC
:100030000C9465000C94E4020C9465000C9465002B
:100040000C9465000C9465000C9465000C9465009C
:100050000C9465000C9465000C9465000C9465008C
:100060000C9465000C9465000C9465000C9465007C
:100070000C9465000C9465000C9465000C9465006C
:100080000C9465000C9465000C94650011241FBE4F
:10009000CFEFD0E4DEBFCDBF11E0A0E0B1E0ECE9EE
:1000A000FBE000E00BBF02C007900D92A430B10747
:1000B000D9F711E0A4E0B1E001C01D92AE30B10764
:1000C000E1F70E9470030C94CC050C940000DF93C0
:1000D000CF930F92CDB7DEB7898389818130E1F06C
:1000E00081EC90E021EC30E0F90120812861FC01F5
:1000F000208382EC90E022EC30E0F9012081266040
:10010000FC01208384EC90E023E3FC01208385EC58
:1001100090E0FC0110821BC089EC90E029EC30E0FB
:10012000F90120812861FC0120838AEC90E02AEC0F
:1001300030E0F90120812660FC0120838CEC90E006
:1001400023E3FC0120838DEC90E0FC0110820F90F2
:10015000CF91DF910895DF93CF930F92CDB7DEB7A4
:1001600089838981813031F080EC90E0FC018081CD
:10017000807205C088EC90E0FC01808180720F9055
:10018000CF91DF910895DF93CF930F92CDB7DEB774
:1001900089838981813031F080EC90E0FC0180819D
:1001A000807405C088EC90E0FC01808180740F9021
:1001B000CF91DF910895DF93CF930F92CDB7DEB744
:1001C00089838981813031F080EC90E0FC0180816D
:1001D000807805C088EC90E0FC01808180780F90E9
:1001E000CF91DF910895DF93CF930F92CDB7DEB714
:1001F000898389818130A9F006C086EC90E0FC01FA
:10020000808180930D0180EC90E0FC018081882347
:10021000A4F30EC08EEC90E0FC01808180930D0170
:1002200001C0000088EC90E0FC018081882394F3F9
:100230000F90CF91DF910895DF93CF9300D0CDB78A
:10024000DEB789836A838A81813089F0000080EC7F
:1002500090E0FC018081882F90E080729070009780
:10026000B1F386EC90E02981FC01208310C00000EE
:1002700088EC90E0FC018081882F90E08072907083
:100280000097B1F38EEC90E02981FC0120830F9060
:100290000F90CF91DF910895DF93CF930F92CDB759
:1002A000DEB789838981813061F0000080EC90E0C5
:1002B000FC0180818823D4F786EC90E0FC018081EA
:1002C0000BC0000088EC90E0FC0180818823D4F70B
:1002D0008EEC90E0FC0180810F90CF91DF9108952A
:1002E000DF93CF93CDB7DEB78AE790E02AE730E01F
:1002F000F9012081206EFC012083CF91DF910895C8
:100300000F931F93DF93CF9300D000D0CDB7DEB70C
:1003100069837A838B839C832091090130910A0140
:1003200040910B0150910C0169817A818B819C81F4
:100330000E945304882309F485C011E069817A8101
:100340008B819C8120E030E0A9010E945304882326
:1003500009F410E081E08127882351F081E990E0E1
:1003600021E930E0F90120812870FC01208309C0D7
:1003700081E990E021E930E0F90120812360FC016E
:10038000208311E069817A818B819C8128E539E3A2
:1003900044E75FE30E94530488230CF010E011232C
:1003A00041F088E990E02FEF3FEFFC01318320839B
:1003B00038C011E069817A818B819C8120E034E230
:1003C00044EF56E40E94650518160CF010E0112366
:1003D00031F088E990E0FC011182108222C008E926
:1003E00010E069817A818B819C8120E030E040E0DF
:1003F00053E40E946905DC01CB019C01AD0160E082
:1004000074E284EF9AE40E945704DC01CB01BC0142
:10041000CD010E94BF04DC01CB010197F80191835B
:10042000808384E990E0FC011182108289819A81A5
:10043000AB81BC818093090190930A01A0930B01C9
:10044000B0930C010F900F900F900F90CF91DF9110
:100450001F910F910895DF93CF93CDB7DEB780E959
:1004600090E020E4FC01208381E990E02BE0FC0196
:10047000208360E070E0CB010E948001CF91DF918A
:100480000895DF93CF93CDB7DEB780E990E0FC010C
:10049000108281E990E0FC011082CF91DF910895F4
:1004A000DF93CF9300D00F92CDB7DEB789836A83F5
:1004B0004B838B81882379F08A81282F30E081E07B
:1004C00090E0022E02C0880F991F0A94E2F7982F3D
:1004D0008981892B0FC08A81282F30E081E090E04C
:1004E000022E02C0880F991F0A94E2F7982F909568
:1004F000898189230F900F900F90CF91DF910895FC
:10050000DF93CF9300D0CDB7DEB789836A8389812B
:10051000882F90E02A81222F30E0022E02C095958C
:1005200087950A94E2F781700F900F90CF91DF9139
:100530000895DF93CF93CDB7DEB781E890E02BE04D
:10054000FC01208388E890E02DE730E0FC01318356
:1005500020838FE690E022E0FC01208384E890E095
:10056000FC01118210828091000190910101A09103
:100570000201B09103018093050190930601A093BD
:100580000701B09308018FE590E02FE530E0F90115
:1005900020812068FC012083CF91DF910895DF93B3
:1005A000CF93CDB7DEB781E890E0FC011082CF9108
:1005B000DF910895DF93CF93CDB7DEB781E08093CD
:1005C0000401CF91DF9108951F920F920FB60F9201
:1005D00000905B000F9211242F933F934F935F93F2
:1005E0006F937F938F939F93AF93BF93EF93FF93FB
:1005F000DF93CF93CDB7DEB78091050190910601CF
:10060000A0910701B09108010197A109B109809358
:10061000050190930601A0930701B0930801809112
:10062000050190910601A0910701B0910801009782
:10063000A105B10591F40E94DA0280910001909128
:100640000101A0910201B0910301809305019093F3
:100650000601A0930701B0930801CF91DF91FF91AC
:10066000EF91BF91AF919F918F917F916F915F912A
:100670004F913F912F910F9000925B000F900FBE12
:100680000F901F901895DF93CF9300D000D0CDB777
:10069000DEB769837A838B839C8389819A81AB815E
:1006A000BC818093000190930101A0930201B0935B
:1006B00003018091000190910101A0910201B0918C
:1006C00003018093050190930601A0930701B09365
:1006D00008010F900F900F900F90CF91DF91089528
:1006E000DF93CF9300D000D000D0CDB7DEB781E24A
:1006F00090E02FEFFC01208382E290E0FC01108269
:1007000084E290E0FC01108285E290E02FEFFC0192
:1007100020838AE290E02FEFFC0120838BE290E0BF
:10072000FC01108219821A821B821C821D821E8289
:1007300080E00E94670080E00E94F30003C0000098
:1007400001C0000083E290E0FC018081809560E0C0
:100750000E948002898383E290E0FC018081809581
:1007600061E00E9480028A8383E290E0FC01808144
:10077000809562E00E9480028B8383E290E0FC011E
:100780008081809563E00E9480028C8383E290E008
:10079000FC018081809564E00E9480028D8383E269
:1007A00090E0FC01808165E00E9480028E83898157
:1007B0008823B9F080E00E94AB00882391F082E2A8
:1007C00090E021E0FC0120838BE290E0FC011082AC
:1007D00080E00E94AB00882321F081E060E00E946D
:1007E0001C018A818823C1F080E00E94AB0088232D
:1007F00099F082E290E021E0FC0120838BE290E01E
:100800002FEFFC01208380E00E94AB00882321F0C1
:1008100082E060E00E941C018B81882371F080E0FF
:100820000E94AB00882349F082E290E021E0FC01C5
:10083000208383E060E00E941C018C81882371F09A
:1008400080E00E94AB00882349F082E290E021E042
:10085000FC01208384E060E00E941C018D818823DC
:1008600071F080E00E94AB00882349F082E290E0C2
:1008700021E0FC01208385E060E00E941C018E8164
:10088000882309F45CCF80E00E94AB00882309F440
:1008900058CF82E290E021E0FC01208386E060E016
:1008A0000E941C014FCF9CD008F481E008950CD029
:1008B000D2C0CAD040F0C1D030F021F45F3F19F06F
:1008C000B3C05111FCC0B6C0D7D098F39923C9F377
:1008D0005523B1F3951B550BBB27AA276217730746
:1008E000840738F09F5F5F4F220F331F441FAA1FFA
:1008F000A9F333D00E2E3AF0E0E830D091505040BA
:10090000E695001CCAF729D0FE2F27D0660F771F67
:10091000881FBB1F261737074807AB07B0E809F049
:10092000BB0B802DBF01FF2793585F4F2AF09E3FDE
:10093000510568F079C0C3C05F3FECF3983EDCF32B
:10094000869577956795B795F7959F5FC9F7880F57
:10095000911D9695879597F90895E1E0660F771FA9
:10096000881FBB1F621773078407BA0720F0621B3A
:10097000730B840BBA0BEE1F88F7E095089504D033
:100980006894B1119CC008957FD088F09F5790F073
:10099000B92F9927B751A0F0D1F0660F771F881FA4
:1009A000991F1AF0BA95C9F712C0B13081F086D0FC
:1009B000B1E0089583C0672F782F8827B85F39F09A
:1009C000B93FCCF3869577956795B395D9F73EF403
:1009D00090958095709561957F4F8F4F9F4F0895AB
:1009E000990F0008550FAA0BE0E8FEEF1616170640
:1009F000E807F907C0F012161306E407F50798F0A8
:100A0000621B730B840B950B39F40A2661F0232BC0
:100A1000242B252B21F408950A2609F4A140A6953C
:100A20008FEF811D811D089597F99F6780E870E021
:100A300060E008959FEF80EC089500240A94161654
:100A4000170618060906089500240A9412161306BC
:100A5000140605060895092E0394000C11F488234A
:100A600052F0BB0F40F4BF2B11F460FF04C06F5F66
:100A70007F4F8F4F9F4F089557FD9058440F551F3C
:100A800059F05F3F71F04795880F97FB991F61F010
:100A90009F3F79F087950895121613061406551F87
:100AA000F2CF4695F1DF08C0161617061806991FF3
:100AB000F1CF86957105610508940895E894BB27E8
:100AC00066277727CB0197F908958ADF08F48FEF1F
:100AD00008950BD0C0CFB1DF28F0B6DF18F0952312
:100AE00009F0A2CFA7CF1124EACFC6DFA0F3959FCC
:100AF000D1F3950F50E0551F629FF001729FBB2705
:100B0000F00DB11D639FAA27F00DB11DAA1F649FB0
:100B10006627B00DA11D661F829F2227B00DA11D63
:100B2000621F739FB00DA11D621F839FA00D611DE9
:100B3000221F749F3327A00D611D231F849F600D0A
:100B4000211D822F762F6A2F11249F5750408AF043
:100B5000E1F088234AF0EE0FFF1FBB1F661F771FCF
:100B6000881F91505040A9F79E3F510570F05CCF0F
:100B7000A6CF5F3FECF3983EDCF3869577956795BB
:100B8000B795F795E7959F5FC1F7FE2B880F911DED
:0C0B90009695879597F90895F894FFCF8B
:040B9C000100000054
:00000001FF
