:100000000C9446000C9465000C9465000C946500FB
:100010000C9465000C9465000C9465000C946500CC
:100020000C9465000C9465000C9465000C946500BC
:100030000C9465000C9400040C9465000C9465000D
:100040000C9465000C9465000C9465000C9465009C
:100050000C9465000C9465000C9465000C9465008C
:100060000C9465000C9465000C9465000C9465007C
:100070000C9465000C9465000C9465000C9465006C
:100080000C9465000C9465000C94650011241FBE4F
:10009000CFEFD0E4DEBFCDBF11E0A0E0B1E0ECE8EF
:1000A000FCE100E00BBF02C007900D92A833B1073E
:1000B000D9F711E0A8E3B1E001C01D92A738B1075C
:1000C000E1F70E946D080C94440E0C940000DF933D
:1000D000CF930F92CDB7DEB7898389818130E1F06C
:1000E00081EC90E021EC30E0F90120812861FC01F5
:1000F000208382EC90E022EC30E0F9012081266040
:10010000FC01208384EC90E023E3FC01208385EC58
:1001100090E0FC0110821BC089EC90E029EC30E0FB
:10012000F90120812861FC0120838AEC90E02AEC0F
:1001300030E0F90120812660FC0120838CEC90E006
:1001400023E3FC0120838DEC90E0FC0110820F90F2
:10015000CF91DF910895DF93CF930F92CDB7DEB7A4
:1001600089838981813031F080EC90E0FC018081CD
:10017000807205C088EC90E0FC01808180720F9055
:10018000CF91DF910895DF93CF930F92CDB7DEB774
:1001900089838981813031F080EC90E0FC0180819D
:1001A000807405C088EC90E0FC01808180740F9021
:1001B000CF91DF910895DF93CF930F92CDB7DEB744
:1001C00089838981813031F080EC90E0FC0180816D
:1001D000807805C088EC90E0FC01808180780F90E9
:1001E000CF91DF910895DF93CF930F92CDB7DEB714
:1001F000898389818130A9F006C086EC90E0FC01FA
:1002000080818093860180EC90E0FC0180818823CE
:10021000A4F30EC08EEC90E0FC01808180938601F7
:1002200001C0000088EC90E0FC018081882394F3F9
:100230000F90CF91DF910895DF93CF9300D0CDB78A
:10024000DEB789836A838A81813089F0000080EC7F
:1002500090E0FC018081882F90E080729070009780
:10026000B1F386EC90E02981FC01208310C00000EE
:1002700088EC90E0FC018081882F90E08072907083
:100280000097B1F38EEC90E02981FC0120830F9060
:100290000F90CF91DF910895DF93CF930F92CDB759
:1002A000DEB789838981813061F0000080EC90E0C5
:1002B000FC0180818823D4F786EC90E0FC018081EA
:1002C0000BC0000088EC90E0FC0180818823D4F70B
:1002D0008EEC90E0FC0180810F90CF91DF9108952A
:1002E000DF93CF9300D00F92CDB7DEB789836A83B7
:1002F0004B838B81882379F08A81282F30E081E03D
:1003000090E0022E02C0880F991F0A94E2F7982FFE
:100310008981892B0FC08A81282F30E081E090E00D
:10032000022E02C0880F991F0A94E2F7982F909529
:10033000898189230F900F900F90CF91DF910895BD
:10034000DF93CF9300D0CDB7DEB789836A838981ED
:10035000882F90E02A81222F30E0022E02C095954E
:1003600087950A94E2F781700F900F90CF91DF91FB
:100370000895DF93CF93CDB7DEB788E290E02FEEFC
:10038000FC012083000086E290E0FC01808160E0B7
:100390000E94A001882311F481E3B8C086E290E0B6
:1003A000FC01808161E00E94A001882311F484E3B4
:1003B000ADC086E290E0FC01808162E00E94A00175
:1003C000882311F487E3A2C086E290E0FC018081DB
:1003D00063E00E94A001882311F48AE297C088E2BA
:1003E00090E02FEDFC012083000086E290E0FC010C
:1003F000808160E00E94A001882311F482E386C01E
:1004000086E290E0FC01808161E00E94A0018823E7
:1004100011F485E37BC086E290E0FC01808162E01C
:100420000E94A001882311F488E370C086E290E066
:10043000FC01808163E00E94A001882311F480E325
:1004400065C088E290E02FEBFC012083000086E28B
:1004500090E0FC01808160E00E94A001882311F4FB
:1004600083E354C086E290E0FC01808161E00E9459
:10047000A001882311F486E349C086E290E0FC01E4
:10048000808162E00E94A001882311F489E33EC0CC
:1004900086E290E0FC01808163E00E94A001882355
:1004A00011F483E233C088E290E02FE7FC0120835F
:1004B000000086E290E0FC01808160E00E94A001E3
:1004C000882311F481E422C086E290E0FC0180815F
:1004D00061E00E94A001882311F482E417C086E243
:1004E00090E0FC01808162E00E94A001882311F469
:1004F00083E40CC086E290E0FC01808163E00E940E
:10050000A001882311F484E401C080E0CF91DF9141
:100510000895DF93CF93CDB7DEB72C970FB6F8943D
:10052000DEBF0FBECDBF6D837E838F839887298703
:100530003A874B875C878D819E81AF81B8852985FD
:100540003A854B855C85BC01CD010E94760DDC01AE
:10055000CB0189839A83AB83BC8389819A81AB81E8
:10056000BC810097A105B10579F489859A85AB8591
:10057000BC85BC01CD012C960FB6F894DEBF0FBE32
:10058000CDBFCF91DF91089589859A85AB85BC85D4
:100590008D839E83AF83B88789819A81AB81BC812B
:1005A00089879A87AB87BC87C6CFDF93CF93CDB7B8
:1005B000DEB78AE790E02AE730E0F9012081206E7B
:1005C000FC012083CF91DF9108950F931F93DF9358
:1005D000CF9300D000D0CDB7DEB769837A838B8309
:1005E0009C8320918201309183014091840150913C
:1005F000850169817A818B819C810E94DE0B882331
:1006000009F485C011E069817A818B819C8120E0A9
:1006100030E0A9010E94DE0B882309F410E081E09C
:100620008127882351F081E990E021E930E0F90148
:1006300020812870FC01208309C081E990E021E934
:1006400030E0F90120812360FC01208311E0698101
:100650007A818B819C8128E539E344E75FE30E943E
:10066000DE0B88230CF010E0112341F088E990E0C4
:100670002FEF3FEFFC013183208338C011E0698107
:100680007A818B819C8120E034E244EF56E40E9421
:10069000F00C18160CF010E0112331F088E990E00E
:1006A000FC011182108222C008E910E069817A8180
:1006B0008B819C8120E030E040E053E40E94F40C08
:1006C000DC01CB019C01AD0160E074E284EF9AE4AF
:1006D0000E94E20BDC01CB01BC01CD010E944A0C5F
:1006E000DC01CB010197F8019183808384E990E0DC
:1006F000FC011182108289819A81AB81BC81809337
:10070000820190938301A0938401B09385010F909F
:100710000F900F900F90CF91DF911F910F9108953F
:10072000DF93CF93CDB7DEB780E990E020E4FC0102
:10073000208381E990E02BE0FC01208360E070E001
:10074000CB010E94E502CF91DF910895DF93CF9313
:10075000CDB7DEB780E990E0FC01108281E990E03E
:10076000FC011082CF91DF910895DF93CF93CDB735
:10077000DEB781E890E02BE0FC01208388E890E080
:100780002DE730E0FC01318320838FE690E022E00A
:10079000FC01208384E890E0FC01118210828091AA
:1007A000000190910101A0910201B0910301809399
:1007B000390190933A01A0933B01B0933C018FE53E
:1007C00090E02FE530E0F90120812068FC012083D2
:1007D000CF91DF910895DF93CF93CDB7DEB781E856
:1007E00090E0FC011082CF91DF910895DF93CF93C9
:1007F000CDB7DEB781E080933801CF91DF910895C6
:100800001F920F920FB60F9200905B000F9211246F
:100810002F933F934F935F936F937F938F939F9308
:10082000AF93BF93EF93FF93DF93CF93CDB7DEB733
:100830008091390190913A01A0913B01B0913C0126
:100840000197A109B1098093390190933A01A093CE
:100850003B01B0933C018091390190913A01A09104
:100860003B01B0913C010097A105B10591F40E94B4
:10087000F6038091000190910101A0910201B091D5
:1008800003018093390190933A01A0933B01B09307
:100890003C01CF91DF91FF91EF91BF91AF919F917B
:1008A0008F917F916F915F914F913F912F910F9019
:1008B00000925B000F900FBE0F901F901895DF9372
:1008C000CF9300D000D0CDB7DEB769837A838B8316
:1008D0009C8389819A81AB81BC8180930001909334
:1008E0000101A0930201B093030180910001909156
:1008F0000101A0910201B09103018093390190930D
:100900003A01A0933B01B0933C010F900F900F90E0
:100910000F90CF91DF910895DF93CF9300D0CDB7A3
:10092000DEB789836A8380E00E94AB00882331F0C0
:1009300099818A81892B60E00E941C010F900F90A1
:10094000CF91DF910895DF93CF9300D000D00F9225
:10095000CDB7DEB79D838C8319821A821B828C816E
:100960009D81009719F41D821C8203C01D821C8288
:1009700000008C819D81009709F083C080E290E0A7
:10098000FC018081898383E290E0FC018081809575
:100990008A83898161E00E94A001809342018A815B
:1009A00060E00E94A00180933D018A8161E00E9485
:1009B000A00180933E018A8162E00E94A0018093A1
:1009C0003F018A8163E00E94A001809340018A81F7
:1009D00064E00E94A001809341010E94B9018B83D1
:1009E0008B81882309F449C08B81873319F41092D5
:1009F000460148C08B81843421F481E08093460114
:100A000041C08B81833421F482E0809346013AC057
:100A10008B81823421F483E08093460133C08B8143
:100A2000833221F484E0809346012CC08B8189338A
:100A300021F485E08093460125C08B81863321F423
:100A400086E0809346011EC08B81803321F487E0CD
:100A50008093460117C08B81883321F488E080930E
:100A6000460110C08B81853321F489E080934601D3
:100A700009C08FE08093460105C08BE0809346015A
:100A800001C000008C819D810F900F900F900F90FE
:100A90000F90CF91DF910895DF93CF9300D0CDB722
:100AA000DEB79A83898389819A81009719F41A8223
:100AB000198203C01A8219820000000089819A817C
:100AC0000F900F90CF91DF910895DF93CF9300D0D7
:100AD000CDB7DEB79A83898389819A81009719F40B
:100AE0001A82198203C01A821982000089819A81B0
:100AF000009709F0C1C01092430110924401809107
:100B00003D01882321F088E0809344019AC08091C0
:100B10003E01882321F082E08093440192C08091BD
:100B20003F01882321F089E0809344018AC08091AD
:100B30004001882321F08BE08093440182C08091A2
:100B40004101882321F081E0809344017AC08091A3
:100B50004201882321F081E08093430172C080919B
:100B600046018B3009F46DC0809146018F3031F41D
:100B7000809127016FE00E948C0463C08091460140
:100B8000882331F48091270160E00E948C0459C0D1
:100B900080914601813031F48091270161E00E940B
:100BA0008C044FC080914601823031F4809127013E
:100BB00062E00E948C0445C080914601833031F48C
:100BC0008091270163E00E948C043BC08091460124
:100BD000843031F48091270164E00E948C0431C09C
:100BE00080914601853031F48091270165E00E94B3
:100BF0008C0427C080914601863031F48091270112
:100C000066E00E948C041DC080914601873031F45B
:100C10008091270167E00E948C0413C080914601F7
:100C2000883031F48091270168E00E948C0409C06B
:100C300080914601893029F48091270169E00E9462
:100C40008C048BE290E020914301222F30E0220FB0
:100C5000331F220F331F220F331F422F20914401D5
:100C6000222F30E022953295307F3227207F3227A5
:100C7000242BFC01208301C0000089819A810F9000
:100C80000F90CF91DF910895DF93CF9300D0CDB730
:100C9000DEB79A83898389819A81009719F41A8231
:100CA000198203C01A821982000089819A810097F3
:100CB00051F480914901882341F08091490181508C
:100CC0008093490103C0000001C0000089819A811E
:100CD0000F900F90CF91DF910895DF93CF9300D0C5
:100CE000CDB7DEB79A83898389819A81009719F4F9
:100CF0001A82198203C01A821982000089819A819E
:100D0000009709F0E2C19091470180911F01981767
:100D100009F079C19091480180910401981761F51B
:100D20000E94FA0D20E130E0B9010E94630D8F5F4F
:100D30008093480180914A0193E0692F0E94570DEA
:100D4000882F90E029E030E0A901481B590BCA0127
:100D5000823091056CF080914A0193E0692F0E94E6
:100D6000570D99E0592F581B852F809349013EC19B
:100D700081E0809349013AC180914901882309F4B7
:100D80002DC180913D01882371F09091480180919F
:100D90000501981719F48091230102C08091240164
:100DA000809347010DC180913E01882371F090919D
:100DB000480180910601981719F48091230102C01F
:100DC0008091240180934701FBC080913F018823DB
:100DD00071F09091480180910701981719F4809162
:100DE000230102C08091240180934701E9C08091D2
:100DF0004001882371F09091480180910801981773
:100E000019F48091230102C080912401809347014D
:100E1000D7C080914101882371F090914801809161
:100E20000901981719F48091230102C080912401CF
:100E300080934701C5C080914201882371F0909151
:100E4000480180910A01981719F48091230102C08A
:100E50008091240180934701B3C08091460188238B
:100E600071F49091480180910B01981719F48091C9
:100E7000230102C08091240180934701A1C0809189
:100E80004601813071F49091480180910C019817CE
:100E900019F48091230102C08091240180934701BD
:100EA0008FC080914601823071F490914801809109
:100EB0000D01981719F48091230102C0809124013B
:100EC000809347017DC080914601833071F49091F9
:100ED000480180910E01981719F48091230102C0F6
:100EE00080912401809347016BC08091460184303A
:100EF00071F49091480180910F01981719F4809135
:100F0000230102C0809124018093470159C0809140
:100F10004601853071F49091480180911001981735
:100F200019F48091230102C080912401809347012C
:100F300047C080914601863071F4909148018091BC
:100F40001101981719F48091230102C080912401A6
:100F50008093470135C080914601873071F49091AC
:100F6000480180911201981719F48091230102C061
:100F7000809124018093470123C0809146018830ED
:100F800071F49091480180911301981719F48091A0
:100F9000230102C0809124018093470111C08091F8
:100FA0004601893069F490914801809114019817A5
:100FB00019F48091230102C080912401809347019C
:100FC0009091470180911F01981781F082E08093F2
:100FD0004901809104018093480108C08091240157
:100FE00080934701809104018093480190914701CB
:100FF00080912301981709F04BC080914A018F5FBF
:1010000080934A0145C09091470180911D01981736
:1010100031F090914701809124019817C9F4809193
:1010200004018093480110924A0180913E01882377
:1010300079F180911E018093470185E080934901F9
:101040008091280190914901692F0E948C0420C051
:101050009091470180911E01981731F090914701BE
:10106000809123019817A1F4809104018093480195
:1010700080914901882329F480911F0180934701C1
:1010800007C08091280190914901692F0E948C042A
:101090009091470180911F01981779F48091280160
:1010A00090914A01692F0E948C04809125019091B2
:1010B0004801692F0E948C0409C0809126019091FB
:1010C0004701692F0E948C0401C0000089819A8128
:1010D0000F900F90CF91DF9108950F931F93DF939F
:1010E000CF93CDB7DEB7EE970FB6F894DEBF0FBE45
:1010F000CDBF81E290E02FEFFC01208382E290E0FF
:10110000FC01108284E290E0FC01108285E290E014
:101110002FEFFC01208387E290E020EFFC01208389
:1011200088E290E02FE0FC0120838AE290E02FEF3C
:10113000FC0120838BE290E0FC01108281E090E0D2
:10114000A0E0B0E08B839C83AD83BE8385E090E01C
:10115000A0E0B0E08F839887A987BA8784E690E003
:10116000A0E0B0E08B879C87AD87BE8788EE93E0D8
:10117000A0E0B0E08F87988BA98BBA8B85E090E0D8
:10118000A0E0B0E08B8B9C8BAD8BBE8B81E090E0C0
:10119000A0E0B0E08F8B988FA98FBA8F8B819C8154
:1011A000AD81BE812F81388549855A85BC01CD012D
:1011B0000E948902DC01CB018F8B988FA98FBA8F97
:1011C0008F89988DA98DBA8D2B853C854D855E853F
:1011D000BC01CD010E948902DC01CB018F8B988F6D
:1011E000A98FBA8F8F89988DA98DBA8D2F8538894F
:1011F00049895A89BC01CD010E948902DC01CB01D9
:101200008F8B988FA98FBA8F8F89988DA98DBA8D62
:101210002B893C894D895E89BC01CD010E948902E0
:10122000DC01CB018F8B988FA98FBA8F8F89988D16
:10123000A98DBA8D8B8F9C8FAD8FBE8F8B819C813A
:10124000AD81BE812B8D3C8D4D8D5E8DBC01CD0160
:101250000E94760D2F8F38A349A35AA38F819885BA
:10126000A985BA852B8D3C8D4D8D5E8DBC01CD0140
:101270000E94760D2BA33CA34DA35EA38B859C857A
:10128000AD85BE852B8D3C8D4D8D5E8DBC01CD0118
:101290000E94760D2FA338A749A75AA78F85988952
:1012A000A989BA892B8D3C8D4D8D5E8DBC01CD01F8
:1012B0000E94760D2BA73CA74DA75EA78B899C8922
:1012C000AD89BE892B8D3C8D4D8D5E8DBC01CD01D0
:1012D0000E94760D2FA738AB49AB5AABCE01C5960D
:1012E00029E231E04AE0F90100802F5F3F4FFC0125
:1012F0000082019641504423B1F785E090E09CAB19
:101300008BAB8FEF80934B018F8D98A1A9A1BAA1D0
:1013100080934C0190934D01A0934E01B0934F01E7
:101320008F8D98A1A9A1BAA18093500190935101EA
:10133000A0935201B093530183EA94E09093550136
:10134000809354018FEF809356018BA19CA1ADA196
:10135000BEA18093570190935801A0935901B09377
:101360005A018BA19CA1ADA1BEA180935B0190937A
:101370005C01A0935D01B0935E018CE495E09093D5
:10138000600180935F018FEF809361018FA198A529
:10139000A9A5BAA58093620190936301A09364010B
:1013A000B09365018FA198A5A9A5BAA58093660100
:1013B00090936701A0936801B093690185E695E079
:1013C00090936B0180936A018FEF80936C018BA5E2
:1013D0009CA5ADA5BEA580936D0190936E01A093D1
:1013E0006F01B09370018BA59CA5ADA5BEA58093A0
:1013F000710190937201A0937301B093740184E41E
:1014000096E090937601809375018FEF809377013A
:101410008FA598A9A9A9BAA9809378019093790179
:10142000A0937A01B0937B018FA598A9A9A9BAA925
:1014300080937C0190937D01A0937E01B0937F0106
:101440008DE696E090938101809380018B8D9C8D39
:10145000AD8DBE8DBC01CD010E945F040E94B5031D
:1014600080E00E94670080E00E94F30080911D01EF
:10147000809347011A8219829BC089819A81880FC3
:10148000991F9E012F5F3F4F820F931FC496FC014F
:1014900080819181FC012581368147815085898138
:1014A0009A81880F991FBE016F5F7F4F860F971F2C
:1014B000C496FC0180819181FC0181819281A3818C
:1014C000B481281739074A075B0709F045C08981AD
:1014D0009A81880F991F9E012F5F3F4F820F931FA4
:1014E000C496FC010081118189819A81880F991F1E
:1014F0009E012F5F3F4F820F931FC496FC01808196
:101500009181FC012185328589819A81880F991FFB
:10151000AE014F5F5F4F840F951FC496FC01808121
:101520009181FC018081992787FD9095F9010995AA
:10153000F801808389819A81880F991F9E012F5F0E
:101540003F4F820F931FC496FC0180819181FC0163
:10155000158216821782108689819A81880F991FB9
:101560009E012F5F3F4F820F931FC496FC01208185
:10157000318189819A81880F991FAE014F5F5F4F3A
:10158000840F951FC496FC0180819181FC018581A7
:101590009681A781B0850196A11DB11DF9018583B2
:1015A0009683A783B08789819A8101969A838983DC
:1015B00029813A818BA99CA92817390708F45DCFA6
:1015C0000000809138018823E1F31092380152CF56
:1015D000DF93CF93CDB7DEB781E00E940D0BCF91A3
:1015E000DF910895DF93CF93CDB7DEB784E690E027
:1015F0000E94AE0B88E30E940D0B86E00E940D0B4B
:101600008FE00E940D0B81E00E940D0B8AE090E0BC
:101610000E94AE0BCF91DF910895DF93CF930F928D
:10162000CDB7DEB789838BE290E02BE230E0F901A1
:1016300020812F7BFC01208388E290E02981FC013E
:1016400020838BE290E02BE230E0F90120812068DA
:10165000FC01208300008BE290E02BE230E0F901F6
:1016600020812F77FC01208382E090E00E94AE0B66
:101670000F90CF91DF910895DF93CF930F92CDB765
:10168000DEB789838BE290E02BE230E0F901208124
:101690002064FC01208388E290E02981FC01208302
:1016A0008BE290E02BE230E0F90120812068FC0120
:1016B000208300008BE290E02BE230E0F9012081F2
:1016C0002F77FC01208381E090E00E94AE0B0F9009
:1016D000CF91DF910895DF93CF9300D000D0CDB7A5
:1016E000DEB78A837C836B830E94E80A8A818983C0
:1016F00012C0898199819F5F99830E94980B8B8189
:101700009C81FC0120818B819C8101969C838B8331
:10171000822F0E943C0B8B819C81FC01808188235D
:1017200041F70F900F900F900F90CF91DF91089598
:10173000DF93CF930F92CDB7DEB789838981813153
:1017400028F4898181580E940D0B04C0898181553C
:101750000E940D0B0F90CF91DF910895DF93CF93EF
:1017600000D000D000D0CDB7DEB79E838D831A8223
:10177000198214C01C821B8206C000008B819C81D0
:1017800001969C838B838B819C8123E08730920719
:10179000A4F389819A8101969A83898329813A8168
:1017A0008D819E81281739072CF326960FB6F89461
:1017B000DEBF0FBECDBFCF91DF9108959CD008F45E
:1017C00081E008950CD0D2C0CAD040F0C1D030F032
:1017D00021F45F3F19F0B3C05111FCC0B6C0D7D09F
:1017E00098F39923C9F35523B1F3951B550BBB27E8
:1017F000AA2762177307840738F09F5F5F4F220F95
:10180000331F441FAA1FA9F333D00E2E3AF0E0E88D
:1018100030D091505040E695001CCAF729D0FE2FD9
:1018200027D0660F771F881FBB1F2617370748076B
:10183000AB07B0E809F0BB0B802DBF01FF27935821
:101840005F4F2AF09E3F510568F079C0C3C05F3FEB
:10185000ECF3983EDCF3869577956795B795F79509
:101860009F5FC9F7880F911D9695879597F9089501
:10187000E1E0660F771F881FBB1F6217730784079D
:10188000BA0720F0621B730B840BBA0BEE1F88F7AC
:10189000E095089504D06894B1119CC008957FD05C
:1018A00088F09F5790F0B92F9927B751A0F0D1F049
:1018B000660F771F881F991F1AF0BA95C9F712C0D3
:1018C000B13081F086D0B1E0089583C0672F782FC2
:1018D0008827B85F39F0B93FCCF38695779567953F
:1018E000B395D9F73EF490958095709561957F4FAB
:1018F0008F4F9F4F0895990F0008550FAA0BE0E8EE
:10190000FEEF16161706E807F907C0F012161306C1
:10191000E407F50798F0621B730B840B950B39F401
:101920000A2661F0232B242B252B21F408950A2667
:1019300009F4A140A6958FEF811D811D089597F9A7
:101940009F6780E870E060E008959FEF80EC089565
:1019500000240A941616170618060906089500248E
:101960000A9412161306140605060895092E039408
:10197000000C11F4882352F0BB0F40F4BF2B11F47C
:1019800060FF04C06F5F7F4F8F4F9F4F089557FDDB
:101990009058440F551F59F05F3F71F04795880FDD
:1019A00097FB991F61F09F3F79F087950895121674
:1019B00013061406551FF2CF4695F1DF08C0161620
:1019C00017061806991FF1CF8695710561050894D1
:1019D0000895E894BB2766277727CB0197F90895E8
:1019E0008ADF08F48FEF08950BD0C0CFB1DF28F065
:1019F000B6DF18F0952309F0A2CFA7CF1124EACFC4
:101A0000C6DFA0F3959FD1F3950F50E0551F629F5D
:101A1000F001729FBB27F00DB11D639FAA27F00D47
:101A2000B11DAA1F649F6627B00DA11D661F829F6E
:101A30002227B00DA11D621F739FB00DA11D621F53
:101A4000839FA00D611D221F749F3327A00D611D70
:101A5000231F849F600D211D822F762F6A2F112452
:101A60009F5750408AF0E1F088234AF0EE0FFF1FA5
:101A7000BB1F661F771F881F91505040A9F79E3FDC
:101A8000510570F05CCFA6CF5F3FECF3983EDCF3DE
:101A9000869577956795B795F795E7959F5FC1F719
:101AA000FE2B880F911D9695879597F90895991BA0
:101AB00079E004C0991F961708F0961B881F7A9545
:101AC000C9F78095089597FB092E07260AD077FD60
:101AD00004D02ED006D000201AF4709561957F4F67
:101AE0000895F6F7909581959F4F0895A1E21A2EDB
:101AF000AA1BBB1BFD010DC0AA1FBB1FEE1FFF1FB2
:101B0000A217B307E407F50720F0A21BB30BE40B01
:101B1000F50B661F771F881F991F1A9469F7609548
:101B20007095809590959B01AC01BD01CF01089502
:101B3000AA1BBB1B51E107C0AA1FBB1FA617B707F3
:101B400010F0A61BB70B881F991F5A95A9F780950F
:101B50009095BC01CD010895AF92BF92CF92DF92D4
:101B6000EF92FF920F931F93CF93DF93EC01688165
:101B700079818A819B81611571058105910521F427
:101B800064E279ED8BE597E02DE133EF41E050E041
:101B90000E94290E79018A0127EA31E440E050E0F1
:101BA0000E940A0E5B016C01C801B7012CEE34EFF4
:101BB0004FEF5FEF0E940A0E6A0D7B1D8C1D9D1D6D
:101BC00097FF04C0615070408040904868837983DB
:101BD0008A839B837F77CB01DF91CF911F910F91F8
:101BE000FF90EF90DF90CF90BF90AF9008950E944C
:101BF000AC0D089583E391E00E94AC0D0895A0E040
:101C0000B0E08093330190933401A0933501B093F9
:101C100036010895629FD001739FF001829FE00D0D
:101C2000F11D649FE00DF11D929FF00D839FF00D5B
:101C3000749FF00D659FF00D9927729FB00DE11D07
:101C4000F91F639FB00DE11DF91FBD01CF011124E4
:101C5000089597FB092E05260ED057FD04D046DFC8
:101C60000AD0001C38F450954095309521953F4F8F
:101C70004F4F5F4F0895F6F7909580957095619559
:0C1C80007F4F8F4F9F4F0895F894FFCFC7
:101C8C0001000000000102030405060708090A0B05
:101C9C000C0D0E0F101112131415161718191A1B00
:101CAC001B1C1D1E1F004080C04B01560161016CA6
:081CBC000177010100000000A6
:00000001FF
