:100000000C9446000C9465000C9465000C946500FB
:100010000C9465000C9465000C9465000C946500CC
:100020000C9465000C9465000C9465000C946500BC
:100030000C9465000C9430030C9465000C946500DE
:100040000C9465000C9465000C9465000C9465009C
:100050000C9465000C9465000C9465000C9465008C
:100060000C9465000C9465000C9465000C9465007C
:100070000C9465000C9465000C9465000C9465006C
:100080000C9465000C9465000C94650011241FBE4F
:10009000CFEFD0E4DEBFCDBF12E0A0E0B1E0EEE5EF
:1000A000FBE100E00BBF02C007900D92A03AB10740
:1000B000D9F712E0A0EAB2E001C01D92A03EB1075C
:1000C000E1F70E94FC080C94AD0D0C940000DF9346
:1000D000CF930F92CDB7DEB7898389818130E1F06C
:1000E00081EC90E021EC30E0F90120812861FC01F5
:1000F000208382EC90E022EC30E0F9012081266040
:10010000FC01208384EC90E023E3FC01208385EC58
:1001100090E0FC0110821BC089EC90E029EC30E0FB
:10012000F90120812861FC0120838AEC90E02AEC0F
:1001300030E0F90120812660FC0120838CEC90E006
:1001400023E3FC0120838DEC90E0FC0110820F90F2
:10015000CF91DF910895DF93CF930F92CDB7DEB7A4
:1001600089838981813031F080EC90E0FC018081CD
:10017000807205C088EC90E0FC01808180720F9055
:10018000CF91DF910895DF93CF930F92CDB7DEB774
:1001900089838981813031F080EC90E0FC0180819D
:1001A000807405C088EC90E0FC01808180740F9021
:1001B000CF91DF910895DF93CF930F92CDB7DEB744
:1001C00089838981813031F080EC90E0FC0180816D
:1001D000807805C088EC90E0FC01808180780F90E9
:1001E000CF91DF910895DF93CF930F92CDB7DEB714
:1001F000898389818130A9F006C086EC90E0FC01FA
:1002000080818093CF0280EC90E0FC018081882384
:10021000A4F30EC08EEC90E0FC0180818093CF02AD
:1002200001C0000088EC90E0FC018081882394F3F9
:100230000F90CF91DF910895DF93CF9300D0CDB78A
:10024000DEB789836A838A81813089F0000080EC7F
:1002500090E0FC018081882F90E080729070009780
:10026000B1F386EC90E02981FC01208310C00000EE
:1002700088EC90E0FC018081882F90E08072907083
:100280000097B1F38EEC90E02981FC0120830F9060
:100290000F90CF91DF910895DF93CF930F92CDB759
:1002A000DEB789838981813061F0000080EC90E0C5
:1002B000FC0180818823D4F786EC90E0FC018081EA
:1002C0000BC0000088EC90E0FC0180818823D4F70B
:1002D0008EEC90E0FC0180810F90CF91DF9108952A
:1002E000DF93CF93CDB7DEB72C970FB6F894DEBF70
:1002F0000FBECDBF6D837E838F83988729873A8712
:100300004B875C878D819E81AF81B88529853A8531
:100310004B855C85BC01CD010E94620DDC01CB01E7
:1003200089839A83AB83BC8389819A81AB81BC81A9
:100330000097A105B10579F489859A85AB85BC85BF
:10034000BC01CD012C960FB6F894DEBF0FBECDBF19
:10035000CF91DF91089589859A85AB85BC858D8382
:100360009E83AF83B88789819A81AB81BC8189875D
:100370009A87AB87BC87C6CFDF93CF93CDB7DEB765
:100380008AE790E02AE730E0F9012081206EFC0145
:100390002083CF91DF9108950F931F93DF93CF9325
:1003A00000D000D0CDB7DEB769837A838B839C837E
:1003B0002091CB023091CC024091CD025091CE02DF
:1003C00069817A818B819C810E94DD0B882309F4ED
:1003D00085C011E069817A818B819C8120E030E0C9
:1003E000A9010E94DD0B882309F410E081E0812738
:1003F000882351F081E990E021E930E0F901208182
:100400002870FC01208309C081E990E021E930E0F7
:10041000F90120812360FC01208311E069817A8148
:100420008B819C8128E539E344E75FE30E94DD0B83
:1004300088230CF010E0112341F088E990E02FEFC1
:100440003FEFFC013183208338C011E069817A815C
:100450008B819C8120E034E244EF56E40E94EF0C53
:1004600018160CF010E0112331F088E990E0FC013F
:100470001182108222C008E910E069817A818B81A3
:100480009C8120E030E040E053E40E94F30CDC016A
:10049000CB019C01AD0160E074E284EF9AE40E941C
:1004A000E10BDC01CB01BC01CD010E94490CDC0158
:1004B000CB010197F8019183808384E990E0FC01EE
:1004C0001182108289819A81AB81BC818093CB0299
:1004D0009093CC02A093CD02B093CE020F900F90D8
:1004E0000F900F90CF91DF911F910F910895DF939F
:1004F000CF93CDB7DEB780E990E020E4FC01208304
:1005000081E990E02BE0FC01208360E070E0CB010A
:100510000E94CC01CF91DF910895DF93CF93CDB7A7
:10052000DEB780E990E0FC01108281E990E0FC01F7
:100530001082CF91DF910895DF93CF9300D00F9277
:10054000CDB7DEB789836A834B838B81882379F0AB
:100550008A81282F30E081E090E0022E02C0880FCF
:10056000991F0A94E2F7982F8981892B0FC08A81FD
:10057000282F30E081E090E0022E02C0880F991F02
:100580000A94E2F7982F9095898189230F900F9014
:100590000F90CF91DF910895DF93CF9300D0CDB727
:1005A000DEB789836A838981882F90E02A81222F90
:1005B00030E0022E02C0959587950A94E2F781708B
:1005C0000F900F90CF91DF910895DF93CF93CDB728
:1005D000DEB781E890E02BE0FC01208388E890E022
:1005E0002DE730E0FC01318320838FE690E022E0AC
:1005F000FC01208384E890E0FC011182108280914C
:10060000250190912601A0912701B09128018093A6
:10061000A1029093A202A093A302B093A4028FE53B
:1006200090E02FE530E0F90120812068FC01208373
:10063000CF91DF910895DF93CF93CDB7DEB781E8F7
:1006400090E0FC011082CF91DF910895DF93CF936A
:10065000CDB7DEB781E08093A002CF91DF910895FE
:100660001F920F920FB60F9200905B000F92112411
:100670002F933F934F935F936F937F938F939F93AA
:10068000AF93BF93EF93FF93DF93CF93CDB7DEB7D5
:100690008091A1029091A202A091A302B091A40224
:1006A0000197A109B1098093A1029093A202A0939E
:1006B000A302B093A4028091A1029091A202A09102
:1006C000A302B091A4020097A105B10591F40E9484
:1006D00026038091250190912601A0912701B091D8
:1006E00028018093A1029093A202A093A302B09349
:1006F000A402CF91DF91FF91EF91BF91AF919F91B4
:100700008F917F916F915F914F913F912F910F90BA
:1007100000925B000F900FBE0F901F901895DF9313
:10072000CF9300D000D0CDB7DEB769837A838B83B7
:100730009C8389819A81AB81BC81809325019093B0
:100740002601A0932701B093280180912501909163
:100750002601A0912701B09128018093A1029093D6
:10076000A202A093A302B093A4020F900F900F9047
:100770000F90CF91DF910895DF93CF93CDB7DEB780
:100780006C970FB6F894DEBF0FBECDBF9091A60256
:1007900080911901981751F427E531E0CE010196B7
:1007A000B9014CE150E00E94840D5FC09091A60217
:1007B00080911A01981751F423E731E0CE01019698
:1007C000B90144E150E00E94840D4FC09091A6020F
:1007D00080911C01981751F427E831E0CE01019671
:1007E000B90149E050E00E94840D3FC09091A602FB
:1007F00080911D01981751F420E931E0CE01019656
:10080000B9014AE050E00E94840D2FC09091A602E9
:1008100080911E01981751F42AE931E0CE0101962A
:10082000B9014AE050E00E94840D1FC09091A602D9
:1008300080911F01981751F424EA31E0CE0101960E
:10084000B90149E050E00E94840D0FC09091A602CA
:1008500080912001981749F42DEA31E0CE010196EC
:10086000B90147E150E00E94840D2AE231E0CE0157
:100870000196B9010E94940D009711F480E015C013
:100880008AE291E00E94A40D9C018AE291E060E07E
:1008900070E0A9010E948D0D8AE291E09E012F5F18
:1008A0003F4FB9010E949D0D81E06C960FB6F89400
:1008B000DEBF0FBECDBFCF91DF910895DF93CF9301
:1008C000CDB7DEB72F970FB6F894DEBF0FBECDBF02
:1008D0009091A70280911901981751F424EC31E00E
:1008E000CE010196B9014FE050E00E94840D2FC166
:1008F0009091A70280911A01981751F423ED31E0ED
:10090000CE010196B9014DE050E00E94840D1FC157
:100910009091A70280910101981751F420EE31E0E7
:10092000CE010196B9014CE050E00E94840D0FC148
:100930009091A70280910201981751F42CEE31E0BA
:10094000CE010196B9014DE050E00E94840DFFC038
:100950009091A70280910301981751F429EF31E09B
:10096000CE010196B9014EE050E00E94840DEFC027
:100970009091A70280910401981751F427E032E08A
:10098000CE010196B9014EE050E00E94840DDFC017
:100990009091A70280910501981751F425E132E06A
:1009A000CE010196B9014BE050E00E94840DCFC00A
:1009B0009091A70280910601981751F420E232E04D
:1009C000CE010196B9014AE050E00E94840DBFC0FB
:1009D0009091A70280910701981751F42AE232E022
:1009E000CE010196B90149E050E00E94840DAFC0EC
:1009F0009091A70280910801981751F423E332E007
:100A0000CE010196B90149E050E00E94840D9FC0DB
:100A10009091A70280910901981751F42CE332E0DC
:100A2000CE010196B90149E050E00E94840D8FC0CB
:100A30009091A70280910A01981751F425E432E0C1
:100A4000CE010196B90149E050E00E94840D7FC0BB
:100A50009091A70280910B01981751F42EE432E097
:100A6000CE010196B90149E050E00E94840D6FC0AB
:100A70009091A70280910C01981751F427E532E07C
:100A8000CE010196B90149E050E00E94840D5FC09B
:100A90009091A70280910D01981751F420E632E061
:100AA000CE010196B90149E050E00E94840D4FC08B
:100AB0009091A70280910E01981751F429E632E037
:100AC000CE010196B90149E050E00E94840D3FC07B
:100AD0009091A70280910F01981751F422E732E01C
:100AE000CE010196B90149E050E00E94840D2FC06B
:100AF0009091A70280911001981751F42BE732E0F2
:100B0000CE010196B90149E050E00E94840D1FC05A
:100B10009091A70280911F01981751F424E832E0C8
:100B2000CE010196B9014AE050E00E94840D0FC049
:100B30009091A70280912001981749F42EE832E0A5
:100B4000CE010196B9014CE050E00E94840D86E48C
:100B500091E00E94A40D9C0186E491E060E070E0C9
:100B6000A9010E948D0D86E491E09E012F5F3F4F09
:100B7000B9010E949D0D2F960FB6F894DEBF0FBEEF
:100B8000CDBFCF91DF910895DF93CF9300D000D0F8
:100B9000CDB7DEB71A8219821C821B828091A9020E
:100BA0009AE0692F0E94560D892F882F90E09A8332
:100BB00089838091A9029AE0692F0E94560D882F9F
:100BC00090E09C838B8389819A81009721F480E354
:100BD0008093550150C089819A818130910521F41B
:100BE00081E38093550147C089819A8182309105C4
:100BF00021F482E3809355013EC089819A8183303C
:100C0000910521F483E38093550135C089819A8150
:100C10008430910521F484E3809355012CC08981AF
:100C20009A818530910521F485E38093550123C095
:100C300089819A818630910521F486E3809355015C
:100C40001AC089819A818730910521F487E38093C6
:100C5000550111C089819A818830910521F488E37A
:100C60008093550108C089819A818930910519F4D2
:100C700089E3809355018B819C81009721F480E367
:100C80008093560150C08B819C818130910521F465
:100C900081E38093560147C08B819C81823091050E
:100CA00021F482E3809356013EC08B819C81833086
:100CB000910521F483E38093560135C08B819C819B
:100CC0008430910521F484E3809356012CC08B81FC
:100CD0009C818530910521F485E38093560123C0E2
:100CE0008B819C818630910521F486E380935601A7
:100CF0001AC08B819C818730910521F487E3809312
:100D0000560111C08B819C818830910521F488E3C4
:100D10008093560108C08B819C818930910519F41C
:100D200089E3809356018091A902882379F09091FC
:100D3000A60280911901981749F09091A60280911E
:100D40001F01981719F081E090E002C080E090E068
:100D50000F900F900F900F90CF91DF9108950F9308
:100D60001F93DF93CF9300D000D0CDB7DEB79C8325
:100D70008B8381E089831A828B819C81009719F48F
:100D80001C821B8203C01C821B8200008B819C8101
:100D9000009709F0B0C01A828091A502898330C003
:100DA0008981082F10E08AE291E00E94A40D80174B
:100DB000910750F419828A81882F90E080539D4FCB
:100DC00020E2FC01208316C08981882F90E00197E2
:100DD000992384F08A81882F90E02981222F30E0A6
:100DE00021503040265D3E4FF901208180539D4FB8
:100DF000FC01208389818F5F89838A818F5F8A8349
:100E0000809129019A81981758F21A82198212C08A
:100E100089810E94970B8A81882F90E080539D4F93
:100E2000FC0180810E943B0B89818F5F89838A81CD
:100E30008F5F8A83809129019A81981748F3809166
:100E4000A5028F5F8093A5028091A502082F10E074
:100E50008AE291E00E94A40D0817190711F410927C
:100E6000A5020E945E041A82809129018F5F898306
:100E700023C08A81082F10E086E491E00E94A40D2F
:100E80000817190768F489810E94970B8A81882FB7
:100E900090E08A5B9E4FFC0180810E943B0B06C064
:100EA00089810E94970B80E20E943B0B89818F5FB2
:100EB00089838A818F5F8A838A81282F30E080919D
:100EC0002901882F90E0880F991F281739078CF285
:100ED0000E94C405882389F08FE10E94970B8091BE
:100EE00056010E943B0B80E20E94970B80915501B6
:100EF0000E943B0B03C0000001C000008B819C815D
:100F00000F900F900F900F90CF91DF911F910F9145
:100F10000895DF93CF9300D000D0CDB7DEB79C8388
:100F20008B8319821A828B819C81009719F41C8211
:100F30001B8203C01C821B8200008B819C81009756
:100F400009F073C081E00E94DB00882309F46FC0C0
:100F500081E00E944C0189838981807C8A83898118
:100F60008F738983809121019A819817D1F580919F
:100F7000010191E02981281708F490E020910501F2
:100F800081E03981231708F480E08923882389F4DC
:100F90008091070191E02981281708F490E02091C1
:100FA000100181E03981231708F480E08923882328
:100FB00029F080911C018093A60209C0809106014E
:100FC0009981981721F480911D018093A6020E94B7
:100FD000BC03882311F01092A50289818093A70297
:100FE0002BC0809122019A81981769F4898180939E
:100FF000A60289818093A7020E94BC038823C9F0BE
:101000001092A50219C0809123019A81981721F4AA
:1010100089818093A80210C0809124019A81981739
:1010200051F489818093A90207C0000005C0000027
:1010300003C0000001C000008B819C810F900F90C5
:101040000F900F90CF91DF910895DF93CF93CDB79D
:10105000DEB761970FB6F894DEBF0FBECDBF998B98
:10106000888B88E189838BE78A838CE28B8389E292
:101070008C838BE48D8389E88E8388E88F838BE370
:10108000888788E089878BE08A878AE08B878CE96C
:101090008C878CE88D878AE88E8787EF8F87888991
:1010A0009989009719F4198A188A03C0198A188A2D
:1010B000000088899989009709F092C08091A80260
:1010C000882331F482E290E02981FC01208389C0E9
:1010D0008091A802813031F482E290E02A81FC0103
:1010E00020837FC08091A802823031F482E290E0B8
:1010F0002B81FC01208375C08091A802833031F4DC
:1011000082E290E02C81FC0120836BC08091A802D8
:10111000843031F482E290E02D81FC01208361C0B3
:101120008091A802853031F482E290E02E81FC01AA
:10113000208357C08091A802863031F482E290E08B
:101140002F81FC0120834DC08091A802873031F4AB
:1011500082E290E02885FC01208343C08091A802B0
:10116000883031F482E290E02985FC01208339C087
:101170008091A802893031F482E290E02A85FC0156
:1011800020832FC08091A8028A3031F482E290E05F
:101190002B85FC01208325C08091A8028C3031F47E
:1011A00082E290E02C85FC0120831BC08091A80284
:1011B0008E3031F482E290E02D85FC01208311C055
:1011C0008091A8028F3031F482E290E02E85FC01FC
:1011D000208307C082E290E02F85FC01208301C0BC
:1011E00000008889998961960FB6F894DEBF0FBE1A
:1011F000CDBFCF91DF9108950F931F93DF93CF93CE
:10120000CDB7DEB7AA970FB6F894DEBF0FBECDBF3D
:1012100081E290E02FEFFC01208382E290E0FC016C
:10122000108284E290E02FEFFC01208385E290E0C1
:10123000FC01108287E290E02FEFFC01208388E21E
:1012400090E0FC0110828AE290E02FEFFC01208305
:101250008BE290E0FC01108284EF91E0A0E0B0E02E
:101260008B839C83AD83BE8381E090E0A0E0B0E0FF
:101270008F839887A987BA878AE090E0A0E0B0E0E2
:101280008B879C87AD87BE8781E090E0A0E0B0E0CF
:101290008F87988BA98BBA8B8B819C81AD81BE8106
:1012A0002F81388549855A85BC01CD010E94700186
:1012B000DC01CB018F87988BA98BBA8B8F8598899E
:1012C000A989BA892B853C854D855E85BC01CD01F8
:1012D0000E947001DC01CB018F87988BA98BBA8BA0
:1012E0008F859889A989BA898B8B9C8BAD8BBE8B96
:1012F0008B819C81AD81BE812B893C894D895E8922
:10130000BC01CD010E94620D2F8B388F498F5A8FFF
:101310008F819885A985BA852B893C894D895E89FD
:10132000BC01CD010E94620D2B8F3C8F4D8F5E8FD3
:101330008B859C85AD85BE852B893C894D895E89D1
:10134000BC01CD010E94620D2F8F38A349A35AA37F
:10135000CE0185962AE932E046E0F90100802F5F50
:101360003F4FFC010082019641504423B1F783E0D6
:1013700090E09CA38BA38FEF8093AA028F89988D16
:10138000A98DBA8D8093AB029093AC02A093AD026D
:10139000B093AE028F89988DA98DBA8D8093AF02DC
:1013A0009093B002A093B102B093B2028FEA96E09C
:1013B0009093B4028093B3028FEF8093B5028B8D2C
:1013C0009C8DAD8DBE8D8093B6029093B702A09395
:1013D000B802B093B9028B8D9C8DAD8DBE8D80937C
:1013E000BA029093BB02A093BC02B093BD0289E8FD
:1013F00097E09093BF028093BE028FEF8093C0026C
:101400008F8D98A1A9A1BAA18093C1029093C20225
:10141000A093C302B093C4028F8D98A1A9A1BAA1D1
:101420008093C5029093C602A093C702B093C802EE
:1014300085E298E09093CA028093C9028B899C89C7
:10144000AD89BE89BC01CD010E948F030E94E502D7
:101450000E94F10A0E94E70A81E00E94670081E091
:101460000E94F3008FEF8093A8028091190180936E
:10147000A6021A8219829BC089819A81880F991FBE
:101480009E012F5F3F4F820F931F8496FC01808146
:101490009181FC01258136814781508589819A811E
:1014A000880F991FBE016F5F7F4F860F971F84962D
:1014B000FC0180819181FC0181819281A381B481B1
:1014C000281739074A075B0709F045C089819A81C7
:1014D000880F991F9E012F5F3F4F820F931F8496A5
:1014E000FC010081118189819A81880F991F9E01D9
:1014F0002F5F3F4F820F931F8496FC018081918163
:10150000FC012185328589819A81880F991FAE015E
:101510004F5F5F4F840F951F8496FC0180819181FE
:10152000FC018081992787FD9095F9010995F801C3
:10153000808389819A81880F991F9E012F5F3F4F79
:10154000820F931F8496FC0180819181FC0115829A
:1015500016821782108689819A81880F991F9E01B1
:101560002F5F3F4F820F931F8496FC0120813181B2
:1015700089819A81880F991FAE014F5F5F4F840F59
:10158000951F8496FC0180819181FC018581968163
:10159000A781B0850196A11DB11DF90185839683B0
:1015A000A783B08789819A8101969A83898329814B
:1015B0003A818BA19CA12817390708F45DCF000060
:1015C0008091A0028823E1F31092A00252CFDF9312
:1015D000CF93CDB7DEB781E00E940C0BCF91DF91A6
:1015E0000895DF93CF93CDB7DEB784E690E00E94F5
:1015F000AD0B88E30E940C0B86E00E940C0B8FE081
:101600000E940C0B81E00E940C0B8AE090E00E948B
:10161000AD0BCF91DF910895DF93CF930F92CDB7AC
:10162000DEB789838BE290E02BE230E0F901208184
:101630002F7BFC01208388E290E02981FC0120833C
:101640008BE290E02BE230E0F90120812068FC0180
:10165000208300008BE290E02BE230E0F901208152
:101660002F77FC01208382E090E00E94AD0B0F9069
:10167000CF91DF910895DF93CF930F92CDB7DEB76F
:1016800089838BE290E02BE230E0F9012081206435
:10169000FC01208388E290E02981FC0120838BE219
:1016A00090E02BE230E0F90120812068FC012083EA
:1016B00000008BE290E02BE230E0F90120812F77EF
:1016C000FC01208381E090E00E94AD0B0F90CF9150
:1016D000DF910895DF93CF9300D000D0CDB7DEB770
:1016E0008A837C836B830E94E70A8A81898312C084
:1016F000898199819F5F99830E94970B8B819C813F
:10170000FC0120818B819C8101969C838B83822F9D
:101710000E943B0B8B819C81FC018081882341F7D7
:101720000F900F900F900F90CF91DF910895DF935E
:10173000CF930F92CDB7DEB789838981813128F4A9
:10174000898181580E940C0B04C0898181550E94B7
:101750000C0B0F90CF91DF910895DF93CF9300D0C2
:1017600000D000D0CDB7DEB79E838D831A82198258
:1017700014C01C821B8206C000008B819C810196D4
:101780009C838B838B819C8123E087309207A4F319
:1017900089819A8101969A83898329813A818D81F1
:1017A0009E81281739072CF326960FB6F894DEBFD2
:1017B0000FBECDBFCF91DF9108959CD008F481E09A
:1017C00008950CD0D2C0CAD040F0C1D030F021F47E
:1017D0005F3F19F0B3C05111FCC0B6C0D7D098F329
:1017E0009923C9F35523B1F3951B550BBB27AA27A2
:1017F00062177307840738F09F5F5F4F220F331F14
:10180000441FAA1FA9F333D00E2E3AF0E0E830D0DF
:1018100091505040E695001CCAF729D0FE2F27D0E2
:10182000660F771F881FBB1F261737074807AB07B0
:10183000B0E809F0BB0B802DBF01FF2793585F4F25
:101840002AF09E3F510568F079C0C3C05F3FECF3BA
:10185000983EDCF3869577956795B795F7959F5FEA
:10186000C9F7880F911D9695879597F90895E1E03E
:10187000660F771F881FBB1F621773078407BA079D
:1018800020F0621B730B840BBA0BEE1F88F7E095F8
:10189000089504D06894B1119CC008957FD088F059
:1018A0009F5790F0B92F9927B751A0F0D1F0660F4C
:1018B000771F881F991F1AF0BA95C9F712C0B13067
:1018C00081F086D0B1E0089583C0672F782F8827F4
:1018D000B85F39F0B93FCCF3869577956795B395A6
:1018E000D9F73EF490958095709561957F4F8F4F15
:1018F0009F4F0895990F0008550FAA0BE0E8FEEFDF
:1019000016161706E807F907C0F012161306E407C3
:10191000F50798F0621B730B840B950B39F40A26BC
:1019200061F0232B242B252B21F408950A2609F49A
:10193000A140A6958FEF811D811D089597F99F679E
:1019400080E870E060E008959FEF80EC0895002447
:101950000A941616170618060906089500240A9414
:1019600012161306140605060895092E0394000C9A
:1019700011F4882352F0BB0F40F4BF2B11F460FF29
:1019800004C06F5F7F4F8F4F9F4F089557FD905852
:10199000440F551F59F05F3F71F04795880F97FB33
:1019A000991F61F09F3F79F08795089512161306ED
:1019B0001406551FF2CF4695F1DF08C0161617061C
:1019C0001806991FF1CF8695710561050894089551
:1019D000E894BB2766277727CB0197F908958ADF1C
:1019E00008F48FEF08950BD0C0CFB1DF28F0B6DF39
:1019F00018F0952309F0A2CFA7CF1124EACFC6DFB4
:101A0000A0F3959FD1F3950F50E0551F629FF00111
:101A1000729FBB27F00DB11D639FAA27F00DB11D6A
:101A2000AA1F649F6627B00DA11D661F829F2227F3
:101A3000B00DA11D621F739FB00DA11D621F839F7A
:101A4000A00D611D221F749F3327A00D611D231F50
:101A5000849F600D211D822F762F6A2F11249F579E
:101A600050408AF0E1F088234AF0EE0FFF1FBB1FC1
:101A7000661F771F881F91505040A9F79E3F510560
:101A800070F05CCFA6CF5F3FECF3983EDCF3869519
:101A900077956795B795F795E7959F5FC1F7FE2B0B
:101AA000880F911D9695879597F90895991B79E070
:101AB00004C0991F961708F0961B881F7A95C9F7DE
:101AC00080950895A1E21A2EAA1BBB1BFD010DC033
:101AD000AA1FBB1FEE1FFF1FA217B307E407F507DE
:101AE00020F0A21BB30BE40BF50B661F771F881FBA
:101AF000991F1A9469F760957095809590959B0150
:101B0000AC01BD01CF010895FB01DC0102C00190D1
:101B10000D9241505040D8F70895DC0101C06D93FB
:101B200041505040E0F70895FB01DC018D91019098
:101B300080190110D9F3990B0895FB01DC01019084
:101B40000D920020E1F70895FC0101900020E9F7D3
:0E1B5000809590958E0F9F1F0895F894FFCFFB
:101B5E00000102030405060708090A0B0C0D0E0FFF
:101B6E00101112131415161718191A1B1B1C1D1EF3
:101B7E001F004080C0010000001057656C636F6D40
:101B8E006520746F20456D62656464656420426FE4
:101B9E007020697421005374617274202D3E2047A9
:101BAE007265656E00303057656C636F6D652074BD
:101BBE006F20456D62656464656420426F702069B4
:101BCE007421004C657420676F206F6620616C6C09
:101BDE0020696E70757400507573682069742100E9
:101BEE0054776973742069742100436F766572208F
:101BFE0069742100436F72726563742100496E63CC
:101C0E006F72726563742120506C61792041676137
:101C1E00696E3F005374617274202D3E20477265C9
:101C2E00656E005374617274696E6720696E200070
:101C3E00426C756520427574746F6E0047726565EF
:101C4E006E20427574746F6E00507572706C6520E4
:101C5E00427574746F6E0053696C766572204275AE
:101C6E0074746F6E0052656420427574746F6E00EA
:101C7E005370696E204B6E6F62004B6579706164B4
:101C8E002030004B65797061642031004B657970AE
:101C9E0061642032004B65797061642033004B65BE
:101CAE00797061642034004B657970616420350071
:101CBE004B65797061642036004B657970616420E4
:101CCE0037004B65797061642038004B657970611F
:101CDE0064203900476F6F64204A6F6221004669A5
:101CEE006E616C2053636F726500AA02B502C0026A
:00000001FF
