:100000000C9446000C9465000C9465000C946500FB
:100010000C9465000C9465000C9465000C946500CC
:100020000C9465000C9465000C9465000C946500BC
:100030000C9465000C9430030C9465000C946500DE
:100040000C9465000C9465000C9465000C9465009C
:100050000C9465000C9465000C9465000C9465008C
:100060000C9465000C9465000C9465000C9465007C
:100070000C9465000C9465000C9465000C9465006C
:100080000C9465000C9465000C94650011241FBE4F
:10009000CFEFD0E4DEBFCDBF11E0A0E0B1E0EAE0F9
:1000A000F1E100E00BBF02C007900D92A632B1074C
:1000B000D9F711E0A6E2B1E001C01D92A835B10761
:1000C000E1F70E9460040C9483080C940000DF9315
:1000D000CF930F92CDB7DEB7898389818130E1F06C
:1000E00081EC90E021EC30E0F90120812861FC01F5
:1000F000208382EC90E022EC30E0F9012081266040
:10010000FC01208384EC90E023E3FC01208385EC58
:1001100090E0FC0110821BC089EC90E029EC30E0FB
:10012000F90120812861FC0120838AEC90E02AEC0F
:1001300030E0F90120812660FC0120838CEC90E006
:1001400023E3FC0120838DEC90E0FC0110820F90F2
:10015000CF91DF910895DF93CF930F92CDB7DEB7A4
:1001600089838981813031F080EC90E0FC018081CD
:10017000807205C088EC90E0FC01808180720F9055
:10018000CF91DF910895DF93CF930F92CDB7DEB774
:1001900089838981813031F080EC90E0FC0180819D
:1001A000807405C088EC90E0FC01808180740F9021
:1001B000CF91DF910895DF93CF930F92CDB7DEB744
:1001C00089838981813031F080EC90E0FC0180816D
:1001D000807805C088EC90E0FC01808180780F90E9
:1001E000CF91DF910895DF93CF930F92CDB7DEB714
:1001F000898389818130A9F006C086EC90E0FC01FA
:1002000080818093470180EC90E0FC01808188230D
:10021000A4F30EC08EEC90E0FC0180818093470136
:1002200001C0000088EC90E0FC018081882394F3F9
:100230000F90CF91DF910895DF93CF9300D0CDB78A
:10024000DEB789836A838A81813089F0000080EC7F
:1002500090E0FC018081882F90E080729070009780
:10026000B1F386EC90E02981FC01208310C00000EE
:1002700088EC90E0FC018081882F90E08072907083
:100280000097B1F38EEC90E02981FC0120830F9060
:100290000F90CF91DF910895DF93CF930F92CDB759
:1002A000DEB789838981813061F0000080EC90E0C5
:1002B000FC0180818823D4F786EC90E0FC018081EA
:1002C0000BC0000088EC90E0FC0180818823D4F70B
:1002D0008EEC90E0FC0180810F90CF91DF9108952A
:1002E000DF93CF93CDB7DEB72C970FB6F894DEBF70
:1002F0000FBECDBF6D837E838F83988729873A8712
:100300004B875C878D819E81AF81B88529853A8531
:100310004B855C85BC01CD010E946108DC01CB01ED
:1003200089839A83AB83BC8389819A81AB81BC81A9
:100330000097A105B10579F489859A85AB85BC85BF
:10034000BC01CD012C960FB6F894DEBF0FBECDBF19
:10035000CF91DF91089589859A85AB85BC858D8382
:100360009E83AF83B88789819A81AB81BC8189875D
:100370009A87AB87BC87C6CFDF93CF93CDB7DEB765
:100380008AE790E02AE730E0F9012081206EFC0145
:100390002083CF91DF9108950F931F93DF93CF9325
:1003A00000D000D0CDB7DEB769837A838B839C837E
:1003B0002091430130914401409145015091460103
:1003C00069817A818B819C810E94E806882309F4E7
:1003D00085C011E069817A818B819C8120E030E0C9
:1003E000A9010E94E806882309F410E081E0812732
:1003F000882351F081E990E021E930E0F901208182
:100400002870FC01208309C081E990E021E930E0F7
:10041000F90120812360FC01208311E069817A8148
:100420008B819C8128E539E344E75FE30E94E8067D
:1004300088230CF010E0112341F088E990E02FEFC1
:100440003FEFFC013183208338C011E069817A815C
:100450008B819C8120E034E244EF56E40E94FA074D
:1004600018160CF010E0112331F088E990E0FC013F
:100470001182108222C008E910E069817A818B81A3
:100480009C8120E030E040E053E40E94FE07DC0164
:10049000CB019C01AD0160E074E284EF9AE40E941C
:1004A000EC06DC01CB01BC01CD010E945407DC014C
:1004B000CB010197F8019183808384E990E0FC01EE
:1004C0001182108289819A81AB81BC818093430122
:1004D00090934401A0934501B09346010F900F9073
:1004E0000F900F90CF91DF911F910F910895DF939F
:1004F000CF93CDB7DEB780E990E020E4FC01208304
:1005000081E990E02BE0FC01208360E070E0CB010A
:100510000E94CC01CF91DF910895DF93CF93CDB7A7
:10052000DEB780E990E0FC01108281E990E0FC01F7
:100530001082CF91DF910895DF93CF9300D00F9277
:10054000CDB7DEB789836A834B838B81882379F0AB
:100550008A81282F30E081E090E0022E02C0880FCF
:10056000991F0A94E2F7982F8981892B0FC08A81FD
:10057000282F30E081E090E0022E02C0880F991F02
:100580000A94E2F7982F9095898189230F900F9014
:100590000F90CF91DF910895DF93CF9300D0CDB727
:1005A000DEB789836A838981882F90E02A81222F90
:1005B00030E0022E02C0959587950A94E2F781708B
:1005C0000F900F90CF91DF910895DF93CF93CDB728
:1005D000DEB781E890E02BE0FC01208388E890E022
:1005E0002DE730E0FC01318320838FE690E022E0AC
:1005F000FC01208384E890E0FC011182108280914C
:10060000000190910101A0910201B091030180933A
:10061000270190932801A0932901B0932A018FE527
:1006200090E02FE530E0F90120812068FC01208373
:10063000CF91DF910895DF93CF93CDB7DEB781E8F7
:1006400090E0FC011082CF91DF910895DF93CF936A
:10065000CDB7DEB781E080932601CF91DF91089579
:100660001F920F920FB60F9200905B000F92112411
:100670002F933F934F935F936F937F938F939F93AA
:10068000AF93BF93EF93FF93DF93CF93CDB7DEB7D5
:100690008091270190912801A0912901B0912A0110
:1006A0000197A109B1098093270190932801A09394
:1006B0002901B0932A018091270190912801A091EE
:1006C0002901B0912A010097A105B10591F40E947A
:1006D00026038091000190910101A0910201B09147
:1006E00003018093270190932801A0932901B093DF
:1006F0002A01CF91DF91FF91EF91BF91AF919F912F
:100700008F917F916F915F914F913F912F910F90BA
:1007100000925B000F900FBE0F901F901895DF9313
:10072000CF9300D000D0CDB7DEB769837A838B83B7
:100730009C8389819A81AB81BC81809300019093D5
:100740000101A0930201B0930301809100019091F7
:100750000101A0910201B0910301809327019093C0
:100760002801A0932901B0932A010F900F900F90B8
:100770000F90CF91DF910895DF93CF9300D000D0F9
:100780000F92CDB7DEB79D838C8380E18B8381E0B0
:1007900089831A828C819D81009719F41D821C82A5
:1007A00003C01D821C8200008C819D81009709F08E
:1007B00050C01A8280912B01898321C089818A309F
:1007C00010F081E089838981882F90E00197992337
:1007D00084F08A81882F90E02981222F30E02150F7
:1007E0003040245E3E4FF9012081885B9E4FFC0122
:1007F000208389818F5F89838A818F5F8A839A8131
:100800008B819817D8F21A8281E0898312C089817E
:100810000E94A2068A81882F90E0885B9E4FFC018F
:1008200080810E94460689818F5F89838A818F5FDC
:100830008A839A818B81981750F380912B018F5F67
:1008400080932B0180912B01893029F410922B0188
:1008500003C0000001C000008C819D810F900F90AB
:100860000F900F900F90CF91DF910895DF93CF936A
:1008700000D0CDB7DEB79A83898389819A810097AA
:1008800019F41A82198203C01A8219820000898120
:100890009A81009759F481E00E94DB00882341F09F
:1008A00081E00E944C0180932C0103C0000001C034
:1008B000000089819A810F900F90CF91DF91089568
:1008C0000F931F93DF93CF93CDB7DEB7A0970FB6EB
:1008D000F894DEBF0FBECDBF81E290E0FC01108234
:1008E00082E290E02FEFFC01208384E290E02FEF82
:1008F000FC01208385E290E0FC01108287E290E019
:100900002FEFFC01208388E290E0FC0110828AE254
:1009100090E02FEFFC0120838BE290E0FC0110823D
:1009200084EF91E0A0E0B0E08B839C83AD83BE8335
:1009300081E090E0A0E0B0E08F839887A987BA8734
:1009400081E090E0A0E0B0E08B879C87AD87BE8718
:100950008B819C81AD81BE812F81388549855A85E7
:10096000BC01CD010E947001DC01CB018B879C870B
:10097000AD87BE878B859C85AD85BE858F87988B1F
:10098000A98BBA8B8B819C81AD81BE812F853889E3
:1009900049895A89BC01CD010E9461082B8B3C8B8F
:1009A0004D8B5E8B8F819885A985BA852F85388977
:1009B00049895A89BC01CD010E9461082F8B388F6B
:1009C000498F5A8F8DE291E09E8F8D8F88E391E061
:1009D00098A38F8F82E090E09C8F8B8F8FEF809316
:1009E0002D018B899C89AD89BE8980932E019093BE
:1009F0002F01A0933001B09331018B899C89AD897F
:100A0000BE898093320190933301A0933401B09357
:100A100035018CEB93E090933701809336018FEF93
:100A2000809338018F89988DA98DBA8D8093390173
:100A300090933A01A0933B01B0933C018F89988D2C
:100A4000A98DBA8D80933D0190933E01A0933F0103
:100A5000B093400186E394E090934201809341017A
:100A60008F859889A989BA89BC01CD010E948F031D
:100A70000E94E5020E94FC050E94F20581E00E94AE
:100A8000670081E00E94F3001A8219829BC089816D
:100A90009A81880F991F9E012F5F3F4F820F931FEE
:100AA0004C96FC0180819181FC0125813681478132
:100AB000508589819A81880F991FBE016F5F7F4F92
:100AC000860F971F4C96FC0180819181FC018181EA
:100AD0009281A381B481281739074A075B0709F07F
:100AE00045C089819A81880F991F9E012F5F3F4FD2
:100AF000820F931F4C96FC010081118189819A819C
:100B0000880F991F9E012F5F3F4F820F931F4C96B6
:100B1000FC0180819181FC012185328589819A8146
:100B2000880F991FAE014F5F5F4F840F951F4C9642
:100B3000FC0180819181FC018081992787FD90953E
:100B4000F9010995F801808389819A81880F991F9D
:100B50009E012F5F3F4F820F931F4C96FC018081B7
:100B60009181FC01158216821782108689819A81F3
:100B7000880F991F9E012F5F3F4F820F931F4C9646
:100B8000FC012081318189819A81880F991FAE01F2
:100B90004F5F5F4F840F951F4C96FC0180819181C0
:100BA000FC0185819681A781B0850196A11DB11DAB
:100BB000F90185839683A783B08789819A810196FD
:100BC0009A83898329813A818B8D9C8D28173907D7
:100BD00008F45DCF0000809126018823E1F3109294
:100BE000260152CFDF93CF93CDB7DEB781E00E94CD
:100BF0001706CF91DF910895DF93CF93CDB7DEB77E
:100C000084E690E00E94B80688E30E94170686E01A
:100C10000E9417068FE00E94170681E00E941706C7
:100C20008AE090E00E94B806CF91DF910895DF93AB
:100C3000CF930F92CDB7DEB789838BE290E02BE2A2
:100C400030E0F90120812F7BFC01208388E290E0D5
:100C50002981FC0120838BE290E02BE230E0F90156
:100C600020812068FC01208300008BE290E02BE2D1
:100C700030E0F90120812F77FC01208382E090E0B1
:100C80000E94B8060F90CF91DF910895DF93CF9324
:100C90000F92CDB7DEB789838BE290E02BE230E094
:100CA000F90120812064FC01208388E290E0298101
:100CB000FC0120838BE290E02BE230E0F9012081FF
:100CC0002068FC01208300008BE290E02BE230E002
:100CD000F90120812F77FC01208381E090E00E94C0
:100CE000B8060F90CF91DF910895DF93CF9300D096
:100CF00000D0CDB7DEB78A837C836B830E94F20578
:100D00008A81898312C0898199819F5F99830E941A
:100D1000A2068B819C81FC0120818B819C810196A4
:100D20009C838B83822F0E9446068B819C81FC01D1
:100D30008081882341F70F900F900F900F90CF91F3
:100D4000DF910895DF93CF930F92CDB7DEB78983FC
:100D50008981813128F4898181580E94170604C055
:100D6000898181550E9417060F90CF91DF910895D8
:100D7000DF93CF9300D000D000D0CDB7DEB79E83F5
:100D80008D831A82198214C01C821B8206C0000047
:100D90008B819C8101969C838B838B819C8123E03A
:100DA00087309207A4F389819A8101969A83898377
:100DB00029813A818D819E81281739072CF3269647
:100DC0000FB6F894DEBF0FBECDBFCF91DF9108956F
:100DD0009CD008F481E008950CD0D2C0CAD040F075
:100DE000C1D030F021F45F3F19F0B3C05111FCC005
:100DF000B6C0D7D098F39923C9F35523B1F3951B07
:100E0000550BBB27AA2762177307840738F09F5F2B
:100E10005F4F220F331F441FAA1FA9F333D00E2E9A
:100E20003AF0E0E830D091505040E695001CCAF707
:100E300029D0FE2F27D0660F771F881FBB1F2617CC
:100E400037074807AB07B0E809F0BB0B802DBF019F
:100E5000FF2793585F4F2AF09E3F510568F079C0F5
:100E6000C3C05F3FECF3983EDCF3869577956795BA
:100E7000B795F7959F5FC9F7880F911D9695879550
:100E800097F90895E1E0660F771F881FBB1F62176F
:100E900073078407BA0720F0621B730B840BBA0B2D
:100EA000EE1F88F7E095089504D06894B1119CC0B6
:100EB00008957FD088F09F5790F0B92F9927B751A8
:100EC000A0F0D1F0660F771F881F991F1AF0BA950E
:100ED000C9F712C0B13081F086D0B1E0089583C067
:100EE000672F782F8827B85F39F0B93FCCF3869504
:100EF00077956795B395D9F73EF490958095709561
:100F000061957F4F8F4F9F4F0895990F0008550FA0
:100F1000AA0BE0E8FEEF16161706E807F907C0F07F
:100F200012161306E407F50798F0621B730B840B87
:100F3000950B39F40A2661F0232B242B252B21F461
:100F400008950A2609F4A140A6958FEF811D811D01
:100F5000089597F99F6780E870E060E008959FEF3B
:100F600080EC089500240A94161617061806090640
:100F7000089500240A94121613061406050608950F
:100F8000092E0394000C11F4882352F0BB0F40F497
:100F9000BF2B11F460FF04C06F5F7F4F8F4F9F4FD7
:100FA000089557FD9058440F551F59F05F3F71F059
:100FB0004795880F97FB991F61F09F3F79F08795C0
:100FC0000895121613061406551FF2CF4695F1DF49
:100FD00008C0161617061806991FF1CF86957105D9
:100FE000610508940895E894BB2766277727CB010D
:100FF00097F908958ADF08F48FEF08950BD0C0CFDA
:10100000B1DF28F0B6DF18F0952309F0A2CFA7CF03
:101010001124EACFC6DFA0F3959FD1F3950F50E0DE
:10102000551F629FF001729FBB27F00DB11D639F9A
:10103000AA27F00DB11DAA1F649F6627B00DA11D40
:10104000661F829F2227B00DA11D621F739FB00DE6
:10105000A11D621F839FA00D611D221F749F332756
:10106000A00D611D231F849F600D211D822F762FEF
:101070006A2F11249F5750408AF0E1F088234AF0EC
:10108000EE0FFF1FBB1F661F771F881F9150504038
:10109000A9F79E3F510570F05CCFA6CF5F3FECF300
:1010A000983EDCF3869577956795B795F795E79524
:1010B0009F5FC1F7FE2B880F911D9695879597F935
:1010C0000895A1E21A2EAA1BBB1BFD010DC0AA1F89
:1010D000BB1FEE1FFF1FA217B307E407F50720F0A1
:1010E000A21BB30BE40BF50B661F771F881F991F1C
:1010F0001A9469F760957095809590959B01AC0165
:0A110000BD01CF010895F894FFCF60
:10110A00010000000102030405060708090A0B0C86
:10111A000D0E0F1011121314151617185075736847
:06112A0020697421200081
:00000001FF
