:100000000C9446000C9465000C9465000C946500FB
:100010000C9465000C9465000C9465000C946500CC
:100020000C9465000C9465000C9465000C946500BC
:100030000C9465000C9430030C9465000C946500DE
:100040000C9465000C9465000C9465000C9465009C
:100050000C9465000C9465000C9465000C9465008C
:100060000C9465000C9465000C9465000C9465007C
:100070000C9465000C9465000C9465000C9465006C
:100080000C9465000C9465000C94650011241FBE4F
:10009000CFEFD0E4DEBFCDBF12E0A0E0B1E0E2E9F7
:1000A000F7E100E00BBF02C007900D92AE33B1073D
:1000B000D9F712E0AEE3B2E001C01D92AE37B1074E
:1000C000E1F70E9422070C94C70B0C940000DF9309
:1000D000CF930F92CDB7DEB7898389818130E1F06C
:1000E00081EC90E021EC30E0F90120812861FC01F5
:1000F000208382EC90E022EC30E0F9012081266040
:10010000FC01208384EC90E023E3FC01208385EC58
:1001100090E0FC0110821BC089EC90E029EC30E0FB
:10012000F90120812861FC0120838AEC90E02AEC0F
:1001300030E0F90120812660FC0120838CEC90E006
:1001400023E3FC0120838DEC90E0FC0110820F90F2
:10015000CF91DF910895DF93CF930F92CDB7DEB7A4
:1001600089838981813031F080EC90E0FC018081CD
:10017000807205C088EC90E0FC01808180720F9055
:10018000CF91DF910895DF93CF930F92CDB7DEB774
:1001900089838981813031F080EC90E0FC0180819D
:1001A000807405C088EC90E0FC01808180740F9021
:1001B000CF91DF910895DF93CF930F92CDB7DEB744
:1001C00089838981813031F080EC90E0FC0180816D
:1001D000807805C088EC90E0FC01808180780F90E9
:1001E000CF91DF910895DF93CF930F92CDB7DEB714
:1001F000898389818130A9F006C086EC90E0FC01FA
:10020000808180936D0280EC90E0FC0180818823E6
:10021000A4F30EC08EEC90E0FC01808180936D020F
:1002200001C0000088EC90E0FC018081882394F3F9
:100230000F90CF91DF910895DF93CF9300D0CDB78A
:10024000DEB789836A838A81813089F0000080EC7F
:1002500090E0FC018081882F90E080729070009780
:10026000B1F386EC90E02981FC01208310C00000EE
:1002700088EC90E0FC018081882F90E08072907083
:100280000097B1F38EEC90E02981FC0120830F9060
:100290000F90CF91DF910895DF93CF930F92CDB759
:1002A000DEB789838981813061F0000080EC90E0C5
:1002B000FC0180818823D4F786EC90E0FC018081EA
:1002C0000BC0000088EC90E0FC0180818823D4F70B
:1002D0008EEC90E0FC0180810F90CF91DF9108952A
:1002E000DF93CF93CDB7DEB72C970FB6F894DEBF70
:1002F0000FBECDBF6D837E838F83988729873A8712
:100300004B875C878D819E81AF81B88529853A8531
:100310004B855C85BC01CD010E947C0BDC01CB01CF
:1003200089839A83AB83BC8389819A81AB81BC81A9
:100330000097A105B10579F489859A85AB85BC85BF
:10034000BC01CD012C960FB6F894DEBF0FBECDBF19
:10035000CF91DF91089589859A85AB85BC858D8382
:100360009E83AF83B88789819A81AB81BC8189875D
:100370009A87AB87BC87C6CFDF93CF93CDB7DEB765
:100380008AE790E02AE730E0F9012081206EFC0145
:100390002083CF91DF9108950F931F93DF93CF9325
:1003A00000D000D0CDB7DEB769837A838B839C837E
:1003B0002091690230916A0240916B0250916C0267
:1003C00069817A818B819C810E94030A882309F4C8
:1003D00085C011E069817A818B819C8120E030E0C9
:1003E000A9010E94030A882309F410E081E0812713
:1003F000882351F081E990E021E930E0F901208182
:100400002870FC01208309C081E990E021E930E0F7
:10041000F90120812360FC01208311E069817A8148
:100420008B819C8128E539E344E75FE30E94030A5E
:1004300088230CF010E0112341F088E990E02FEFC1
:100440003FEFFC013183208338C011E069817A815C
:100450008B819C8120E034E244EF56E40E94150B2E
:1004600018160CF010E0112331F088E990E0FC013F
:100470001182108222C008E910E069817A818B81A3
:100480009C8120E030E040E053E40E94190BDC0145
:10049000CB019C01AD0160E074E284EF9AE40E941C
:1004A000070ADC01CB01BC01CD010E946F0ADC010F
:1004B000CB010197F8019183808384E990E0FC01EE
:1004C0001182108289819A81AB81BC8180936902FB
:1004D00090936A02A0936B02B0936C020F900F90FE
:1004E0000F900F90CF91DF911F910F910895DF939F
:1004F000CF93CDB7DEB780E990E020E4FC01208304
:1005000081E990E02BE0FC01208360E070E0CB010A
:100510000E94CC01CF91DF910895DF93CF93CDB7A7
:10052000DEB780E990E0FC01108281E990E0FC01F7
:100530001082CF91DF910895DF93CF9300D00F9277
:10054000CDB7DEB789836A834B838B81882379F0AB
:100550008A81282F30E081E090E0022E02C0880FCF
:10056000991F0A94E2F7982F8981892B0FC08A81FD
:10057000282F30E081E090E0022E02C0880F991F02
:100580000A94E2F7982F9095898189230F900F9014
:100590000F90CF91DF910895DF93CF9300D0CDB727
:1005A000DEB789836A838981882F90E02A81222F90
:1005B00030E0022E02C0959587950A94E2F781708B
:1005C0000F900F90CF91DF910895DF93CF93CDB728
:1005D000DEB781E890E02BE0FC01208388E890E022
:1005E0002DE730E0FC01318320838FE690E022E0AC
:1005F000FC01208384E890E0FC011182108280914C
:10060000250190912601A0912701B09128018093A6
:100610003F0290934002A0934102B09342028FE5C3
:1006200090E02FE530E0F90120812068FC01208373
:10063000CF91DF910895DF93CF93CDB7DEB781E8F7
:1006400090E0FC011082CF91DF910895DF93CF936A
:10065000CDB7DEB781E080933E02CF91DF91089560
:100660001F920F920FB60F9200905B000F92112411
:100670002F933F934F935F936F937F938F939F93AA
:10068000AF93BF93EF93FF93DF93CF93CDB7DEB7D5
:1006900080913F0290914002A0914102B0914202AC
:1006A0000197A109B10980933F0290934002A09362
:1006B0004102B093420280913F0290914002A0918A
:1006C0004102B09142020097A105B10591F40E9448
:1006D00026038091250190912601A0912701B091D8
:1006E000280180933F0290934002A0934102B0936F
:1006F0004202CF91DF91FF91EF91BF91AF919F9116
:100700008F917F916F915F914F913F912F910F90BA
:1007100000925B000F900FBE0F901F901895DF9313
:10072000CF9300D000D0CDB7DEB769837A838B83B7
:100730009C8389819A81AB81BC81809325019093B0
:100740002601A0932701B093280180912501909163
:100750002601A0912701B091280180933F02909338
:100760004002A0934102B09342020F900F900F906D
:100770000F90CF91DF910895DF93CF93CDB7DEB780
:100780006C970FB6F894DEBF0FBECDBF90914402B8
:1007900080911901981751F425E531E0CE010196B9
:1007A000B9014CE150E00E949E0B5FC09091440261
:1007B00080911A01981751F421E731E0CE0101969A
:1007C000B90144E150E00E949E0B4FC09091440259
:1007D00080911C01981751F425E831E0CE01019673
:1007E000B90149E050E00E949E0B3FC09091440245
:1007F00080911D01981751F42EE831E0CE01019649
:10080000B9014AE050E00E949E0B2FC09091440233
:1008100080911E01981751F428E931E0CE0101962C
:10082000B9014AE050E00E949E0B1FC09091440223
:1008300080911F01981751F422EA31E0CE01019610
:10084000B90149E050E00E949E0B0FC09091440214
:1008500080912001981749F42BEA31E0CE010196EE
:10086000B90147E150E00E949E0B2AE231E0CE013F
:100870000196B9010E94AE0B009711F480E015C0FB
:100880008AE291E00E94BE0B9C018AE291E060E066
:1008900070E0A9010E94A70B8AE291E09E012F5F00
:1008A0003F4FB9010E94B70B81E06C960FB6F894E8
:1008B000DEBF0FBECDBFCF91DF910895DF93CF9301
:1008C000CDB7DEB72F970FB6F894DEBF0FBECDBF02
:1008D0009091450280911901981751F422EC31E072
:1008E000CE010196B9014FE050E00E949E0B7FC0FF
:1008F0009091450280911A01981751F421ED31E051
:10090000CE010196B9014DE050E00E949E0B6FC0F0
:100910009091450280910101981751F42EED31E03C
:10092000CE010196B9014CE050E00E949E0B5FC0E1
:100930009091450280910201981751F42AEE31E01E
:10094000CE010196B9014DE050E00E949E0B4FC0D0
:100950009091450280910301981751F427EF31E0FF
:10096000CE010196B9014EE050E00E949E0B3FC0BF
:100970009091450280910401981751F425E032E0EE
:10098000CE010196B9014EE050E00E949E0B2FC0AF
:100990009091450280910501981751F423E132E0CE
:1009A000CE010196B9014BE050E00E949E0B1FC0A2
:1009B0009091450280911F01981751F42EE132E089
:1009C000CE010196B9014AE050E00E949E0B0FC093
:1009D0009091450280912001981749F428E232E075
:1009E000CE010196B9014FE050E00E949E0B86E4D3
:1009F00091E00E94BE0B9C0186E491E060E070E013
:100A0000A9010E94A70B86E491E09E012F5F3F4F52
:100A1000B9010E94B70B2F960FB6F894DEBF0FBE38
:100A2000CDBFCF91DF9108950F931F93DF93CF93A5
:100A300000D000D0CDB7DEB79C838B8381E0898363
:100A40001A828B819C81009719F41C821B8203C03F
:100A50001C821B8200008B819C81009709F09EC044
:100A60001A8280914302898330C08981082F10E067
:100A70008AE291E00E94BE0B8017910750F4198220
:100A80008A81882F90E082599D4F20E2FC012083CB
:100A900016C08981882F90E00197992384F08A817C
:100AA000882F90E02981222F30E021503040265DB0
:100AB0003E4FF901208182599D4FFC01208389819D
:100AC0008F5F89838A818F5F8A83809129019A81D0
:100AD000981758F21A82198212C089810E94BD09A2
:100AE0008A81882F90E082599D4FFC0180810E946D
:100AF000610989818F5F89838A818F5F8A83809171
:100B000029019A81981748F3809143028F5F80935F
:100B1000430280914302082F10E08AE291E00E9494
:100B2000BE0B0817190711F4109243020E945E04CD
:100B30001A82809129018F5F898323C08A81082FBF
:100B400010E086E491E00E94BE0B0817190768F4D4
:100B500089810E94BD098A81882F90E08A5B9E4F1F
:100B6000FC0180810E94610906C089810E94BD0943
:100B700080E20E94610989818F5F89838A818F5F0A
:100B80008A838A81282F30E080912901882F90E084
:100B9000880F991F281739078CF201C000008B813C
:100BA0009C810F900F900F900F90CF91DF911F912C
:100BB0000F910895DF93CF9300D000D0CDB7DEB76B
:100BC0009C838B8319821A828B819C81009719F4F4
:100BD0001C821B8203C01C821B8200008B819C81B3
:100BE000009709F054C081E00E94DB00882309F4DB
:100BF00050C081E00E944C0189838981807C8A8376
:100C000089818F738983809121019A819817D9F402
:100C100091E08981823008F490E081E029812630DA
:100C200008F080E08923882351F080911C01809393
:100C300044020E94BC03882311F010924302898170
:100C4000809345022BC0809122019A81981769F404
:100C50008981809344028981809345020E94BC036C
:100C60008823C9F01092430219C0809123019A8110
:100C7000981721F489818093460210C08091240145
:100C80009A81981751F489818093470207C0000028
:100C900005C0000003C0000001C000008B819C81E2
:100CA0000F900F900F900F90CF91DF910895DF93E9
:100CB000CF93CDB7DEB760970FB6F894DEBF0FBE07
:100CC000CDBF988B8F8788E189838BE78A838CE2FD
:100CD0008B8389E28C838BE48D8389E88E8388E81B
:100CE0008F838BE3888788E089878BE08A878AE017
:100CF0008B878CE98C878CE88D8787EF8E878F8533
:100D00009889009719F4188A1F8603C0188A1F86CD
:100D100000008F859889009709F088C0809146026D
:100D2000882331F482E290E02981FC0120837FC096
:100D300080914602813031F482E290E02A81FC0108
:100D4000208375C080914602823031F482E290E0C7
:100D50002B81FC0120836BC080914602833031F4EB
:100D600082E290E02C81FC01208361C080914602E8
:100D7000843031F482E290E02D81FC01208357C061
:100D800080914602853031F482E290E02E81FC01B0
:100D900020834DC080914602863031F482E290E09B
:100DA0002F81FC01208343C080914602873031F4BB
:100DB00082E290E02885FC01208339C080914602C0
:100DC000883031F482E290E02985FC0120832FC035
:100DD00080914602893031F482E290E02A85FC015C
:100DE000208325C0809146028A3031F482E290E06F
:100DF0002B85FC0120831BC0809146028C3031F48E
:100E000082E290E02C85FC01208311C08091460293
:100E10008E3031F482E290E02D85FC01208307C002
:100E200082E290E02E85FC01208301C000008F85C6
:100E3000988960960FB6F894DEBF0FBECDBFCF91F4
:100E4000DF9108950F931F93DF93CF93CDB7DEB754
:100E5000AA970FB6F894DEBF0FBECDBF81E290E037
:100E60002FEFFC01208382E290E0FC01108284E2FB
:100E700090E02FEFFC01208385E290E0FC011082DE
:100E800087E290E02FEFFC01208388E290E0FC01F4
:100E900010828AE290E02FEFFC0120838BE290E049
:100EA000FC01108284EF91E0A0E0B0E08B839C8392
:100EB000AD83BE8381E090E0A0E0B0E08F839887AF
:100EC000A987BA8781E090E0A0E0B0E08B879C879B
:100ED000AD87BE8781E090E0A0E0B0E08F87988B7F
:100EE000A98BBA8B8B819C81AD81BE812F81388586
:100EF00049855A85BC01CD010E947001DC01CB01FE
:100F00008F87988BA98BBA8B8F859889A989BA8985
:100F10002B853C854D855E85BC01CD010E9470010D
:100F2000DC01CB018F87988BA98BBA8B8F85988931
:100F3000A989BA898B8B9C8BAD8BBE8B8B819C8155
:100F4000AD81BE812B893C894D895E89BC01CD0173
:100F50000E947C0B2F8B388F498F5A8F8F819885F9
:100F6000A985BA852B893C894D895E89BC01CD0153
:100F70000E947C0B2B8F3C8F4D8F5E8F8B859C85C9
:100F8000AD85BE852B893C894D895E89BC01CD012B
:100F90000E947C0B2F8F38A349A35AA3CE018596BC
:100FA00027E332E046E0F90100802F5F3F4FFC016C
:100FB0000082019641504423B1F783E090E09CA366
:100FC0008BA38FEF809348028F89988DA98DBA8D5E
:100FD0008093490290934A02A0934B02B0934C0233
:100FE0008F89988DA98DBA8D80934D0290934E0272
:100FF000A0934F02B093500284E195E09093520287
:10100000809351028FEF809353028B8D9C8DAD8D19
:10101000BE8D8093540290935502A0935602B093D4
:1010200057028B8D9C8DAD8DBE8D80935802909311
:101030005902A0935A02B0935B028AED95E0909317
:101040005D0280935C028FEF80935E028F8D98A18A
:10105000A9A1BAA180935F0290936002A09361025C
:10106000B09362028F8D98A1A9A1BAA18093630267
:1010700090936402A0936502B093660287E596E0C0
:1010800090936802809367028B899C89AD89BE89A1
:10109000BC01CD010E948F030E94E5020E94170946
:1010A0000E940D0981E00E94670081E00E94F30028
:1010B0008FEF8093460280911901809344021A8237
:1010C00019829BC089819A81880F991F9E012F5F89
:1010D0003F4F820F931F8496FC0180819181FC0118
:1010E000258136814781508589819A81880F991F92
:1010F000BE016F5F7F4F860F971F8496FC01808132
:101100009181FC0181819281A381B48128173907E3
:101110004A075B0709F045C089819A81880F991FAA
:101120009E012F5F3F4F820F931F8496FC01008129
:10113000118189819A81880F991F9E012F5F3F4FEE
:10114000820F931F8496FC0180819181FC0121858F
:10115000328589819A81880F991FAE014F5F5F4F59
:10116000840F951F8496FC0180819181FC01808110
:10117000992787FD9095F9010995F8018083898168
:101180009A81880F991F9E012F5F3F4F820F931FF7
:101190008496FC0180819181FC0115821682178260
:1011A000108689819A81880F991F9E012F5F3F4F7A
:1011B000820F931F8496FC012081318189819A815D
:1011C000880F991FAE014F5F5F4F840F951F849664
:1011D000FC0180819181FC0185819681A781B08588
:1011E0000196A11DB11DF90185839683A783B08760
:1011F00089819A8101969A83898329813A818BA179
:101200009CA12817390708F45DCF000080913E02A9
:101210008823E1F310923E0252CFDF93CF93CDB7F4
:10122000DEB781E00E943209CF91DF910895DF930C
:10123000CF93CDB7DEB784E690E00E94D30988E370
:101240000E94320986E00E9432098FE00E94320932
:1012500081E00E9432098AE090E00E94D309CF9198
:10126000DF910895DF93CF930F92CDB7DEB78983D7
:101270008BE290E02BE230E0F90120812F7BFC0132
:10128000208388E290E02981FC0120838BE290E0BA
:101290002BE230E0F90120812068FC01208300006E
:1012A0008BE290E02BE230E0F90120812F77FC0106
:1012B000208382E090E00E94D3090F90CF91DF91CC
:1012C0000895DF93CF930F92CDB7DEB789838BE27A
:1012D00090E02BE230E0F90120812064FC012083C2
:1012E00088E290E02981FC0120838BE290E02BE2F0
:1012F00030E0F90120812068FC01208300008BE2AE
:1013000090E02BE230E0F90120812F77FC0120836F
:1013100081E090E00E94D3090F90CF91DF91089572
:10132000DF93CF9300D000D0CDB7DEB78A837C8324
:101330006B830E940D098A81898312C089819981FA
:101340009F5F99830E94BD098B819C81FC01208154
:101350008B819C8101969C838B83822F0E946109E3
:101360008B819C81FC018081882341F70F900F9035
:101370000F900F90CF91DF910895DF93CF930F924D
:10138000CDB7DEB789838981813128F4898181587D
:101390000E94320904C0898181550E9432090F9050
:1013A000CF91DF910895DF93CF9300D000D000D08C
:1013B000CDB7DEB79E838D831A82198214C01C823A
:1013C0001B8206C000008B819C8101969C838B83CD
:1013D0008B819C8123E087309207A4F389819A81D5
:1013E00001969A83898329813A818D819E8128176C
:1013F00039072CF326960FB6F894DEBF0FBECDBF8B
:10140000CF91DF9108959CD008F481E008950CD02D
:10141000D2C0CAD040F0C1D030F021F45F3F19F003
:10142000B3C05111FCC0B6C0D7D098F39923C9F30B
:101430005523B1F3951B550BBB27AA2762177307DA
:10144000840738F09F5F5F4F220F331F441FAA1F8E
:10145000A9F333D00E2E3AF0E0E830D0915050404E
:10146000E695001CCAF729D0FE2F27D0660F771FFC
:10147000881FBB1F261737074807AB07B0E809F0DE
:10148000BB0B802DBF01FF2793585F4F2AF09E3F73
:10149000510568F079C0C3C05F3FECF3983EDCF3C0
:1014A000869577956795B795F7959F5FC9F7880FEC
:1014B000911D9695879597F90895E1E0660F771F3E
:1014C000881FBB1F621773078407BA0720F0621BCF
:1014D000730B840BBA0BEE1F88F7E095089504D0C8
:1014E0006894B1119CC008957FD088F09F5790F008
:1014F000B92F9927B751A0F0D1F0660F771F881F39
:10150000991F1AF0BA95C9F712C0B13081F086D090
:10151000B1E0089583C0672F782F8827B85F39F02E
:10152000B93FCCF3869577956795B395D9F73EF497
:1015300090958095709561957F4F8F4F9F4F08953F
:10154000990F0008550FAA0BE0E8FEEF16161706D4
:10155000E807F907C0F012161306E407F50798F03C
:10156000621B730B840B950B39F40A2661F0232B55
:10157000242B252B21F408950A2609F4A140A695D1
:101580008FEF811D811D089597F99F6780E870E0B6
:1015900060E008959FEF80EC089500240A941616E9
:1015A000170618060906089500240A941216130651
:1015B000140605060895092E0394000C11F48823DF
:1015C00052F0BB0F40F4BF2B11F460FF04C06F5FFB
:1015D0007F4F8F4F9F4F089557FD9058440F551FD1
:1015E00059F05F3F71F04795880F97FB991F61F0A5
:1015F0009F3F79F087950895121613061406551F1C
:10160000F2CF4695F1DF08C0161617061806991F87
:10161000F1CF86957105610508940895E894BB277C
:1016200066277727CB0197F908958ADF08F48FEFB3
:1016300008950BD0C0CFB1DF28F0B6DF18F09523A6
:1016400009F0A2CFA7CF1124EACFC6DFA0F3959F60
:10165000D1F3950F50E0551F629FF001729FBB2799
:10166000F00DB11D639FAA27F00DB11DAA1F649F45
:101670006627B00DA11D661F829F2227B00DA11DF8
:10168000621F739FB00DA11D621F839FA00D611D7E
:10169000221F749F3327A00D611D231F849F600D9F
:1016A000211D822F762F6A2F11249F5750408AF0D8
:1016B000E1F088234AF0EE0FFF1FBB1F661F771F64
:1016C000881F91505040A9F79E3F510570F05CCFA4
:1016D000A6CF5F3FECF3983EDCF386957795679550
:1016E000B795F795E7959F5FC1F7FE2B880F911D82
:1016F0009695879597F90895A1E21A2EAA1BBB1B10
:10170000FD010DC0AA1FBB1FEE1FFF1FA217B307CD
:10171000E407F50720F0A21BB30BE40BF50B661FE3
:10172000771F881F991F1A9469F7609570958095A7
:1017300090959B01AC01BD01CF010895FB01DC0137
:1017400002C001900D9241505040D8F70895DC013D
:1017500001C06D9341505040E0F70895FB01DC015A
:101760008D91019080190110D9F3990B0895FB0117
:10177000DC0101900D920020E1F70895FC01019039
:101780000020E9F7809590958E0F9F1F0895F8949B
:02179000FFCF89
:10179200000102030405060708090A0B0C0D0E0FCF
:1017A200101112131415161718191A1B1B1C1D1EC3
:1017B2001F004080C0010000001057656C636F6D10
:1017C2006520746F20456D62656464656420426FB4
:1017D2007020697421005374617274202D3E204779
:1017E2007265656E0057656C636F6D6520746F205E
:1017F200456D62656464656420426F70206974217E
:10180200004C657420676F206F6620616C6C2069E4
:101812006E70757400507573682069742100547776
:101822006973742069742100436F7665722069744C
:101832002100436F72726563742100496E636F7297
:10184200726563742120506C617920416761696E11
:101852003F005374617274202D3E20477265656E9D
:10186200005374617274696E6720696E2000426C65
:10187200756520427574746F6E00477265656E20DF
:10188200427574746F6E00507572706C652042758B
:1018920074746F6E0053696C76657220427574744D
:1018A2006F6E0052656420427574746F6E00476FEC
:1018B2006F64204A6F6221005265747279202D3E56
:0E18C20020477265656E00480253025E020008
:00000001FF
