:100000000C9446000C9465000C9465000C946500FB
:100010000C9465000C9465000C9465000C946500CC
:100020000C9465000C9465000C9465000C946500BC
:100030000C9465000C9430030C9465000C946500DE
:100040000C9465000C9465000C9465000C9465009C
:100050000C9465000C9465000C9465000C9465008C
:100060000C9465000C9465000C9465000C9465007C
:100070000C9465000C9465000C9465000C9465006C
:100080000C9465000C9465000C94650011241FBE4F
:10009000CFEFD0E4DEBFCDBF11E0A0E0B1E0EEEEE7
:1000A000F2E100E00BBF02C007900D92A838B10743
:1000B000D9F711E0A8E8B1E001C01D92AA3BB10751
:1000C000E1F70E9429050C9475090C940000DF9358
:1000D000CF930F92CDB7DEB7898389818130E1F06C
:1000E00081EC90E021EC30E0F90120812861FC01F5
:1000F000208382EC90E022EC30E0F9012081266040
:10010000FC01208384EC90E023E3FC01208385EC58
:1001100090E0FC0110821BC089EC90E029EC30E0FB
:10012000F90120812861FC0120838AEC90E02AEC0F
:1001300030E0F90120812660FC0120838CEC90E006
:1001400023E3FC0120838DEC90E0FC0110820F90F2
:10015000CF91DF910895DF93CF930F92CDB7DEB7A4
:1001600089838981813031F080EC90E0FC018081CD
:10017000807205C088EC90E0FC01808180720F9055
:10018000CF91DF910895DF93CF930F92CDB7DEB774
:1001900089838981813031F080EC90E0FC0180819D
:1001A000807405C088EC90E0FC01808180740F9021
:1001B000CF91DF910895DF93CF930F92CDB7DEB744
:1001C00089838981813031F080EC90E0FC0180816D
:1001D000807805C088EC90E0FC01808180780F90E9
:1001E000CF91DF910895DF93CF930F92CDB7DEB714
:1001F000898389818130A9F006C086EC90E0FC01FA
:1002000080818093A90180EC90E0FC0180818823AB
:10021000A4F30EC08EEC90E0FC0180818093A901D4
:1002200001C0000088EC90E0FC018081882394F3F9
:100230000F90CF91DF910895DF93CF9300D0CDB78A
:10024000DEB789836A838A81813089F0000080EC7F
:1002500090E0FC018081882F90E080729070009780
:10026000B1F386EC90E02981FC01208310C00000EE
:1002700088EC90E0FC018081882F90E08072907083
:100280000097B1F38EEC90E02981FC0120830F9060
:100290000F90CF91DF910895DF93CF930F92CDB759
:1002A000DEB789838981813061F0000080EC90E0C5
:1002B000FC0180818823D4F786EC90E0FC018081EA
:1002C0000BC0000088EC90E0FC0180818823D4F70B
:1002D0008EEC90E0FC0180810F90CF91DF9108952A
:1002E000DF93CF93CDB7DEB72C970FB6F894DEBF70
:1002F0000FBECDBF6D837E838F83988729873A8712
:100300004B875C878D819E81AF81B88529853A8531
:100310004B855C85BC01CD010E942A09DC01CB0123
:1003200089839A83AB83BC8389819A81AB81BC81A9
:100330000097A105B10579F489859A85AB85BC85BF
:10034000BC01CD012C960FB6F894DEBF0FBECDBF19
:10035000CF91DF91089589859A85AB85BC858D8382
:100360009E83AF83B88789819A81AB81BC8189875D
:100370009A87AB87BC87C6CFDF93CF93CDB7DEB765
:100380008AE790E02AE730E0F9012081206EFC0145
:100390002083CF91DF9108950F931F93DF93CF9325
:1003A00000D000D0CDB7DEB769837A838B839C837E
:1003B0002091A5013091A6014091A7015091A8017B
:1003C00069817A818B819C810E94B107882309F41D
:1003D00085C011E069817A818B819C8120E030E0C9
:1003E000A9010E94B107882309F410E081E0812768
:1003F000882351F081E990E021E930E0F901208182
:100400002870FC01208309C081E990E021E930E0F7
:10041000F90120812360FC01208311E069817A8148
:100420008B819C8128E539E344E75FE30E94B107B3
:1004300088230CF010E0112341F088E990E02FEFC1
:100440003FEFFC013183208338C011E069817A815C
:100450008B819C8120E034E244EF56E40E94C30883
:1004600018160CF010E0112331F088E990E0FC013F
:100470001182108222C008E910E069817A818B81A3
:100480009C8120E030E040E053E40E94C708DC019A
:10049000CB019C01AD0160E074E284EF9AE40E941C
:1004A000B507DC01CB01BC01CD010E941D08DC01B8
:1004B000CB010197F8019183808384E990E0FC01EE
:1004C0001182108289819A81AB81BC818093A501C0
:1004D0009093A601A093A701B093A8010F900F904D
:1004E0000F900F90CF91DF911F910F910895DF939F
:1004F000CF93CDB7DEB780E990E020E4FC01208304
:1005000081E990E02BE0FC01208360E070E0CB010A
:100510000E94CC01CF91DF910895DF93CF93CDB7A7
:10052000DEB780E990E0FC01108281E990E0FC01F7
:100530001082CF91DF910895DF93CF9300D00F9277
:10054000CDB7DEB789836A834B838B81882379F0AB
:100550008A81282F30E081E090E0022E02C0880FCF
:10056000991F0A94E2F7982F8981892B0FC08A81FD
:10057000282F30E081E090E0022E02C0880F991F02
:100580000A94E2F7982F9095898189230F900F9014
:100590000F90CF91DF910895DF93CF9300D0CDB727
:1005A000DEB789836A838981882F90E02A81222F90
:1005B00030E0022E02C0959587950A94E2F781708B
:1005C0000F900F90CF91DF910895DF93CF93CDB728
:1005D000DEB781E890E02BE0FC01208388E890E022
:1005E0002DE730E0FC01318320838FE690E022E0AC
:1005F000FC01208384E890E0FC011182108280914C
:10060000190190911A01A0911B01B0911C018093D6
:10061000890190938A01A0938B01B0938C018FE59F
:1006200090E02FE530E0F90120812068FC01208373
:10063000CF91DF910895DF93CF93CDB7DEB781E8F7
:1006400090E0FC011082CF91DF910895DF93CF936A
:10065000CDB7DEB781E080938801CF91DF91089517
:100660001F920F920FB60F9200905B000F92112411
:100670002F933F934F935F936F937F938F939F93AA
:10068000AF93BF93EF93FF93DF93CF93CDB7DEB7D5
:100690008091890190918A01A0918B01B0918C0188
:1006A0000197A109B1098093890190938A01A093D0
:1006B0008B01B0938C018091890190918A01A09166
:1006C0008B01B0918C010097A105B10591F40E94B6
:1006D00026038091190190911A01A0911B01B091FC
:1006E0001C018093890190938A01A0938B01B093A0
:1006F0008C01CF91DF91FF91EF91BF91AF919F91CD
:100700008F917F916F915F914F913F912F910F90BA
:1007100000925B000F900FBE0F901F901895DF9313
:10072000CF9300D000D0CDB7DEB769837A838B83B7
:100730009C8389819A81AB81BC81809319019093BC
:100740001A01A0931B01B0931C0180911901909193
:100750001A01A0911B01B0911C0180938901909313
:100760008A01A0938B01B0938C010F900F900F9092
:100770000F90CF91DF910895DF93CF93CDB7DEB780
:100780006C970FB6F894DEBF0FBECDBF90918E016F
:1007900080910101981751F42AE331E0CE010196CE
:1007A000B90149E050E00E944C0969C090918E0166
:1007B00080910201981751F423E431E0CE010196B3
:1007C000B90149E050E00E944C0959C090918E0156
:1007D00080910301981751F42CE431E0CE01019689
:1007E000B90149E050E00E944C0949C090918E0146
:1007F00080910401981751F425E531E0CE0101966E
:10080000B90149E050E00E944C0939C090918E0135
:1008100080910501981751F42EE531E0CE01019643
:10082000B90149E050E00E944C0929C090918E0125
:1008300080910001981751F427E631E0CE0101962E
:10084000B90148E050E00E944C0919C090918E0116
:1008500080910601981751F42FE631E0CE01019600
:10086000B9014AE050E00E944C0909C029E731E093
:10087000CE010196B9014FE050E00E944C092EE1F3
:1008800031E0CE010196B9010E945C09009711F494
:1008900080E015C08EE191E00E946C099C018EE120
:1008A00091E060E070E0A9010E9455098EE191E0BD
:1008B0009E012F5F3F4FB9010E94650981E06C9650
:1008C0000FB6F894DEBF0FBECDBFCF91DF91089574
:1008D0000F931F93DF93CF9300D000D0CDB7DEB737
:1008E0009C838B8381E089831A828B819C81009712
:1008F00019F41C821B8203C01C821B8200008B81A6
:100900009C81009709F06DC00E94BC03882311F000
:1009100010928D011A8280918D01898330C0898166
:10092000082F10E08EE191E00E946C09801791077A
:1009300050F419828A81882F90E086559E4F20E2DC
:10094000FC01208316C08981882F90E001979923AC
:1009500084F08A81882F90E02981222F30E0215075
:100960003040225E3E4FF901208186559E4FFC01AA
:10097000208389818F5F89838A818F5F8A838091B9
:100980001D019A81981758F21A82198212C0898122
:100990000E946B078A81882F90E086559E4FFC014C
:1009A00080810E940F0789818F5F89838A818F5F91
:1009B0008A8380911D019A81981748F380918D0157
:1009C0008F5F80938D0180918D01082F10E08EE163
:1009D00091E00E946C090817190729F410928D0103
:1009E00003C0000001C000008B819C810F900F901C
:1009F0000F900F90CF91DF911F910F910895DF938A
:100A0000CF9300D0CDB7DEB79A83898389819A814D
:100A1000009719F41A82198203C01A821982000001
:100A200089819A81009759F481E00E94DB00882334
:100A300041F081E00E944C0180938E0103C00000D0
:100A400001C0000089819A810F900F90CF91DF91B2
:100A500008950F931F93DF93CF93CDB7DEB7A09781
:100A60000FB6F894DEBF0FBECDBF81E290E0FC016F
:100A7000108282E290E02FEFFC01208384E290E07C
:100A80002FEFFC01208385E290E0FC01108287E2D9
:100A900090E02FEFFC01208388E290E0FC011082BF
:100AA0008AE290E02FEFFC0120838BE290E0FC01D2
:100AB000108284EF91E0A0E0B0E08B839C83AD8353
:100AC000BE8381E090E0A0E0B0E08F839887A987A3
:100AD000BA8781E090E0A0E0B0E08B879C87AD878B
:100AE000BE878B819C81AD81BE812F8138854985F0
:100AF0005A85BC01CD010E947001DC01CB018B87BE
:100B00009C87AD87BE878B859C85AD85BE858F878D
:100B1000988BA98BBA8B8B819C81AD81BE812F85EF
:100B2000388949895A89BC01CD010E942A092B8B39
:100B30003C8B4D8B5E8B8F819885A985BA852F85DF
:100B4000388949895A89BC01CD010E942A092F8B15
:100B5000388F498F5A8F8FE891E09E8F8D8F8AE969
:100B600091E098A38F8F82E090E09C8F8B8F8FEF26
:100B700080938F018B899C89AD89BE898093900178
:100B800090939101A0939201B09393018B899C89DA
:100B9000AD89BE898093940190939501A0939601AD
:100BA000B093970188E694E090939901809398011F
:100BB0008FEF80939A018F89988DA98DBA8D80933C
:100BC0009B0190939C01A0939D01B0939E018F89FE
:100BD000988DA98DBA8D80939F019093A001A093C9
:100BE000A101B093A2018FEF94E09093A4018093B0
:100BF000A3018F859889A989BA89BC01CD010E947A
:100C00008F030E94E5020E94C5060E94BB0681E098
:100C10000E94670081E00E94F3001A8219829BC043
:100C200089819A81880F991F9E012F5F3F4F820F04
:100C3000931F4C96FC0180819181FC0125813681B6
:100C40004781508589819A81880F991FBE016F5F06
:100C50007F4F860F971F4C96FC0180819181FC018C
:100C600081819281A381B481281739074A075B07E4
:100C700009F045C089819A81880F991F9E012F5FD5
:100C80003F4F820F931F4C96FC0100811181898197
:100C90009A81880F991F9E012F5F3F4F820F931FEC
:100CA0004C96FC0180819181FC01218532858981EE
:100CB0009A81880F991FAE014F5F5F4F840F951F78
:100CC0004C96FC0180819181FC018081992787FDF0
:100CD0009095F9010995F801808389819A81880F9F
:100CE000991F9E012F5F3F4F820F931F4C96FC016F
:100CF00080819181FC01158216821782108689817C
:100D00009A81880F991F9E012F5F3F4F820F931F7B
:100D10004C96FC012081318189819A81880F991F2D
:100D2000AE014F5F5F4F840F951F4C96FC01808191
:100D30009181FC0185819681A781B0850196A11DD5
:100D4000B11DF90185839683A783B08789819A8134
:100D500001969A83898329813A818B8D9C8D2817EE
:100D6000390708F45DCF0000809188018823E1F302
:100D70001092880152CFDF93CF93CDB7DEB781E0D9
:100D80000E94E006CF91DF910895DF93CF93CDB716
:100D9000DEB784E690E00E94810788E30E94E006C7
:100DA00086E00E94E0068FE00E94E00681E00E945B
:100DB000E0068AE090E00E948107CF91DF910895DC
:100DC000DF93CF930F92CDB7DEB789838BE290E0AC
:100DD0002BE230E0F90120812F7BFC01208388E2A7
:100DE00090E02981FC0120838BE290E02BE230E04F
:100DF000F90120812068FC01208300008BE290E053
:100E00002BE230E0F90120812F77FC01208382E082
:100E100090E00E9481070F90CF91DF910895DF93BA
:100E2000CF930F92CDB7DEB789838BE290E02BE2B0
:100E300030E0F90120812064FC01208388E290E009
:100E40002981FC0120838BE290E02BE230E0F90164
:100E500020812068FC01208300008BE290E02BE2DF
:100E600030E0F90120812F77FC01208381E090E0C0
:100E70000E9481070F90CF91DF910895DF93CF9368
:100E800000D000D0CDB7DEB78A837C836B830E940D
:100E9000BB068A81898312C0898199819F5F99836A
:100EA0000E946B078B819C81FC0120818B819C813E
:100EB00001969C838B83822F0E940F078B819C81DC
:100EC000FC018081882341F70F900F900F900F90C5
:100ED000CF91DF910895DF93CF930F92CDB7DEB717
:100EE00089838981813128F4898181580E94E006B3
:100EF00004C0898181550E94E0060F90CF91DF9157
:100F00000895DF93CF9300D000D000D0CDB7DEB7E7
:100F10009E838D831A82198214C01C821B8206C094
:100F200000008B819C8101969C838B838B819C81AB
:100F300023E087309207A4F389819A8101969A83EE
:100F4000898329813A818D819E81281739072CF365
:100F500026960FB6F894DEBF0FBECDBFCF91DF91BE
:100F600008959CD008F481E008950CD0D2C0CAD076
:100F700040F0C1D030F021F45F3F19F0B3C05111FF
:100F8000FCC0B6C0D7D098F39923C9F35523B1F369
:100F9000951B550BBB27AA2762177307840738F0E8
:100FA0009F5F5F4F220F331F441FAA1FA9F333D047
:100FB0000E2E3AF0E0E830D091505040E695001CFB
:100FC000CAF729D0FE2F27D0660F771F881FBB1FB7
:100FD000261737074807AB07B0E809F0BB0B802D91
:100FE000BF01FF2793585F4F2AF09E3F510568F0DD
:100FF00079C0C3C05F3FECF3983EDCF386957795EC
:101000006795B795F7959F5FC9F7880F911D9695DE
:10101000879597F90895E1E0660F771F881FBB1F3A
:10102000621773078407BA0720F0621B730B840BE7
:10103000BA0BEE1F88F7E095089504D06894B111BB
:101040009CC008957FD088F09F5790F0B92F9927C2
:10105000B751A0F0D1F0660F771F881F991F1AF0C3
:10106000BA95C9F712C0B13081F086D0B1E00895C9
:1010700083C0672F782F8827B85F39F0B93FCCF34A
:10108000869577956795B395D9F73EF490958095B9
:10109000709561957F4F8F4F9F4F0895990F00086E
:1010A000550FAA0BE0E8FEEF16161706E807F9073A
:1010B000C0F012161306E407F50798F0621B730BD5
:1010C000840B950B39F40A2661F0232B242B252B56
:1010D00021F408950A2609F4A140A6958FEF811DF9
:1010E000811D089597F99F6780E870E060E008959A
:1010F0009FEF80EC089500240A9416161706180630
:101100000906089500240A9412161306140605060B
:101110000895092E0394000C11F4882352F0BB0F9C
:1011200040F4BF2B11F460FF04C06F5F7F4F8F4FFF
:101130009F4F089557FD9058440F551F59F05F3F3A
:1011400071F04795880F97FB991F61F09F3F79F0E9
:1011500087950895121613061406551FF2CF46956B
:10116000F1DF08C0161617061806991FF1CF8695ED
:101170007105610508940895E894BB2766277727D1
:10118000CB0197F908958ADF08F48FEF08950BD00B
:10119000C0CFB1DF28F0B6DF18F0952309F0A2CF59
:1011A000A7CF1124EACFC6DFA0F3959FD1F3950F07
:1011B00050E0551F629FF001729FBB27F00DB11DDB
:1011C000639FAA27F00DB11DAA1F649F6627B00D6B
:1011D000A11D661F829F2227B00DA11D621F739F54
:1011E000B00DA11D621F839FA00D611D221F749F62
:1011F0003327A00D611D231F849F600D211D822FA9
:10120000762F6A2F11249F5750408AF0E1F08823EF
:101210004AF0EE0FFF1FBB1F661F771F881F9150FC
:101220005040A9F79E3F510570F05CCFA6CF5F3FBD
:10123000ECF3983EDCF3869577956795B795F7952F
:10124000E7959F5FC1F7FE2B880F911D96958795B7
:1012500097F90895A1E21A2EAA1BBB1BFD010DC030
:10126000AA1FBB1FEE1FFF1FA217B307E407F50756
:1012700020F0A21BB30BE40BF50B661F771F881F32
:10128000991F1A9469F760957095809590959B01C8
:10129000AC01BD01CF010895FB01DC0102C001904A
:1012A0000D9241505040D8F70895DC0101C06D9374
:1012B00041505040E0F70895FB01DC018D91019011
:1012C00080190110D9F3990B0895FB01DC010190FD
:1012D0000D920020E1F70895FC0101900020E9F74C
:0E12E000809590958E0F9F1F0895F894FFCF74
:1012EE00000102030405060708090A0B0C0D0E0F78
:1012FE00101112131415161718010000001057655F
:10130E006C636F6D6520746F20456D6265646465F6
:10131E006420426F702069742100427574746F6E80
:10132E00203100427574746F6E20320042757474F1
:10133E006F6E203300427574746F6E2034004275E8
:10134E0074746F6E2035004E6F7468696E6700534B
:10135E0070696E204B6E6F6200556E6361756768C3
:08136E00742076616C756500C6
:00000001FF
